:100000000DC200002AC2000028C2000026C2000063
:1000100024C2000022C2000020C200001EC2000054
:100020001CC200001AC2000018C2000016C2000064
:1000300014C2000012C2000010C200000EC2000074
:100040000CC200000AC2000008C2000006C2000084
:1000500004C2000002C2000000C20000FEC1000095
:10006000FCC100000C948015F8C10000F6C100002E
:10007000F4C10000F2C10000F0C10000EEC10000B8
:10008000ECC10000EAC10000E8C10000E6C10000C8
:100090000C94D815E2C10000E0C10000DEC10000F0
:1000A000DCC10000DAC10000D8C10000D6C10000E8
:1000B000D4C10000D2C10000D0C1000048C500007A
:1000C000CCC10000CAC10000C8C1000078137B1376
:1000D0007E138113AC13AC13841394139B13A513D9
:1000E000A913A21354686520412F4420636F6E76D4
:1000F00065727465722072656769737465727320C6
:100100006861766520746865736520696E707574C2
:10011000733A004E6F207368617265642064617485
:1001200061206974656D7320746F207072696E74DC
:10013000002D2D2D2D2020202020202020202020AB
:10014000202D2D2D2D202020202D2D2D2D2D2D2D20
:100150002D2D2D0053686172652F517565756520D1
:10016000202020205479706520202020467265656B
:100170002F546F74616C004552524F522063726568
:100180006174696E67207461736B2022005461731F
:100190006B2022002220637265617465642C2073D9
:1001A0007461636B206174203078005461736B3A22
:1001B00020005461736B3A2049444C450049444C3B
:1001C00045090930092D09002F0009092D002D2DA1
:1001D0002D2D09092D2D2D2D092D2D2D2D2D00090C
:1001E0002D2D2D2D2D2D2D2D2D2D00092D2D2D2D90
:1001F000004E616D6509095072692E09537461746E
:10020000650009467265652F546F74616C00095270
:10021000756E73005461736B090920200920000971
:10022000537461636B00090009002F000900090085
:100230002020004D45343035204C61622031205360
:1002400074617274696E672050726F6772616D00BD
:100250004D45343035204C6162203120556E6D6F34
:100260006469666965642050726F6772616D2056BB
:10027000302E303120004170722020372032303152
:10028000360053797374656D2074696D653A20008A
:100290002C20486561703A20002C204F4352354194
:1002A0003A20002020683A202020202048414C504D
:1002B0002100202043746C2D433A205265736574ED
:1002C00020746865204156520020206E3A2020207C
:1002D0002020456E7465722061206E756D626572B6
:1002E000202864656D6F29002020643A202020209A
:1002F00020537461636B2064756D7020666F72208B
:100300007461736B73002020733A202020202056E4
:10031000657273696F6E20616E64207365747570A9
:1003200020696E666F726D6174696F6E0020207453
:100330003A202020202053686F772074686520744D
:10034000696D65207269676874206E6F77004D452E
:10035000343035204C6162203120556E6D6F6469F8
:10036000666965642050726F6772616D2056302E29
:10037000303120002068656C7000496C6C656761E5
:100380006C2073746174652120526573657474699F
:100390006E6720415652003C696E76616C6964203C
:1003A00063686172202200223E004E756D626572A4
:1003B00020656E74657265643A2000223A205754B5
:1003C000463F00526573657474696E6720415652EA
:1003D00000456E74657220646563696D616C206EA2
:1003E000756D65726963206469676974732C207424
:1003F00068656E2052455455524E206F7220455309
:100400004300507265737320276827206F7220277E
:100410003F2720666F722068656C700011241FBE34
:10042000CFEFD1E2DEBFCDBF12E0A0E0B2E0E8EF57
:10043000F4E300E00BBF02C007900D92A438B107AF
:10044000D9F72AE1A4E8B2E001C01D92A034B207B6
:10045000E1F70E9430160C947A1AD2CDFC01718318
:100460006083ECE7F0E01082808180648083EAE7BB
:10047000F0E080E880838081856080830895862F06
:100480008F7009F0682FECE7F0E08081807F808337
:1004900080816770682B6083808180628083EAE757
:1004A000F0E080818F7D8083808180648083808183
:1004B00086FF0CC0809184029091850201969093F2
:1004C000850280938402808186FDF4CF809179003B
:1004D00090E0880F991F880F991F9093870280934F
:1004E00086020895CF92DF92EF92FF920F931F93AF
:1004F000CF93DF937C01D62EC42E109289021092E6
:100500008802042F10E0101611069CF4C0E0D0E021
:100510006D2DC701B4DF2091880230918902820FCE
:10052000931F90938902809388022196C017D10768
:1005300079F76C2D70E080918802909189020E9479
:100540008919CB017093890260938802DF91CF9162
:100550001F910F91FF90EF90DF90CF900895CF9271
:10056000DF92EF92FF920F931F93CF93DF93EC01F3
:100570008B0148E061E0C801B5DF7C0148E060E044
:10058000C801B0DF6C016BE0CE010E946C138C01DE
:1005900064EE70E00E943513B601C8010E94B013EA
:1005A00066E00E946C13B7010E94B01366E00E94DF
:1005B0006C13CE01DF91CF911F910F91FF90EF90BF
:1005C000DF90CF9008950F931F93CF93DF93EC01AB
:1005D000E3D680918A0281111DC0EFE8F2E084E940
:1005E00092E09183808313821282EBE8F2E087E34A
:1005F00097E19383828311821082A3E9B2E014967B
:100600009C938E9313971296FC93EE93119781E02F
:1006100080938A02209709F45FC09E012C5F3F4FB0
:100620002396C633D74108F05AC0E0918F02F0916B
:100630009002AFE8B2E002C0DF01FC018281938149
:100640008217930720F4808191810097A9F7C2E077
:10065000EB38FC0709F446C0CD91DC9111978E016F
:100660000C5F1F4F808191818D939C938281938138
:10067000821B930B8930910510F1BF01620F731F2C
:10068000DB0113969C938E931297338322831296E9
:100690004D915C9113978FE892E001C0CD01EC0180
:1006A000A881B98112962D913C9113972417350793
:1006B000A8F3EB01B983A883DC016D937C9380914F
:1006C00000029091010222813381821B930B90934F
:1006D00001028093000208C000E010E005C000E0C5
:1006E00010E002C000E010E078D7C801DF91CF91A0
:1006F0001F910F9108950F931F93CF93DF9300974E
:1007000031F1EC018C010450110946D6F801428107
:100710005381AFE8B2E001C0DF01ED91FC91119788
:100720002281338124173507B8F32497F983E883AE
:100730000D931C9320910002309101028A819B81CC
:10074000820F931F909301028093000246D7DF919E
:10075000CF911F910F910895809100029091010215
:100760000895FC010396928381834FEF5FEFBA01F6
:1007700043835483658376839087878392878187B9
:1007800010820895FC01138612860895CF93DF939B
:100790009C01FB01DC011196CD91DC911297D58370
:1007A000C4838E819F81978386838E819F81DC01A4
:1007B00015967C936E9314977F836E83338722877D
:1007C000F90180818F5F8083DF91CF9108950F932E
:1007D0001F93CF93DF93EB01088119812A813B811D
:1007E0000F3F4FEF14072407340721F4FC01A185C4
:1007F000B28511C0DC01139601C0DF011496ED91A2
:10080000FC9115974081518162817381041715070E
:100810002607370790F71496ED91FC911597FD8305
:10082000EC83D783C683BF83AE831596DC93CE93C8
:1008300014979B878A87FC0120812F5F2083DF919B
:10084000CF911F910F910895CF93DF93FC01A28563
:10085000B385C481D581868197819F838E83C6812C
:10086000D781848195819D838C831196CD91DC9174
:100870001297CE17DF0731F48E819F8112969C93D9
:100880008E931197138612868C9181508C93DF91F1
:10089000CF91089590933F1A80933E1A31E1FC0165
:1008A0003083319722E220833197A3E3A0833197ED
:1008B00060833197708331971082319760E860834D
:1008C00031971082319762E06083319763E06083F3
:1008D000319764E06083319765E06083319766E02B
:1008E0006083319767E06083319768E06083319778
:1008F00069E06083319760E160833197308331979D
:1009000032E13083319733E13083319734E1308302
:10091000319735E13083319736E13083319737E1D4
:100920003083319738E13083319739E13083319723
:1009300030E23083319731E2308331972083319731
:1009400023E220833197408331975083319726E209
:100950002083319727E22083319728E22083319743
:1009600029E22083319720E32083319721E32083FC
:100970008697089587E0809329018FEC8093280162
:100980008AE080932101E3E7F0E080818260808348
:10099000A0912A1AB0912B1ACD91CDBFDD91DEBF67
:1009A000FF91EF91DF91CF91BF91AF919F918F9187
:1009B0007F916F915F914F913F912F911F910F9177
:1009C000FF90EF90DF90CF90BF90AF909F908F906F
:1009D0007F906F905F904F903F902F901F900F905F
:1009E0000FBE0F90089581E008950F920FB6F8940E
:1009F0000F921F9211242F923F924F925F926F920B
:100A00007F928F929F92AF92BF92CF92DF92EF929E
:100A1000FF920F931F932F933F934F935F936F9387
:100A20007F938F939F93AF93BF93CF93DF93EF9376
:100A3000FF93A0912A1AB0912B1A0DB60D920EB603
:100A40000D92CCD6A0912A1AB0912B1ACD91CDBF80
:100A5000DD91DEBFFF91EF91DF91CF91BF91AF911B
:100A60009F918F917F916F915F914F913F912F91C6
:100A70001F910F91FF90EF90DF90CF90BF90AF90BC
:100A80009F908F907F906F905F904F903F902F90AE
:100A90001F900F900FBE0F9008950F920FB6F8940D
:100AA0000F921F9211242F923F924F925F926F925A
:100AB0007F928F929F92AF92BF92CF92DF92EF92EE
:100AC000FF920F931F932F933F934F935F936F93D7
:100AD0007F938F939F93AF93BF93CF93DF93EF93C6
:100AE000FF93A0912A1AB0912B1A0DB60D920EB653
:100AF0000D9273D4811172D6A0912A1AB0912B1A3B
:100B0000CD91CDBFDD91DEBFFF91EF91DF91CF9110
:100B1000BF91AF919F918F917F916F915F914F9115
:100B20003F912F911F910F91FF90EF90DF90CF9009
:100B3000BF90AF909F908F907F906F905F904F90FD
:100B40003F902F901F900F900FBE0F900895A5DF3C
:100B500018951F93CF93DF93EC01142F88A1811177
:100B60000BC088819981892B09F046C08A819B81BD
:100B7000E9D71B821A8247C0411118C0482F50E0A4
:100B80008C819D810E94FD1928A18C819D81820FFD
:100B9000911D9D838C832A813B818217930770F17D
:100BA000888199819D838C8380E02DC0482F50E0FF
:100BB0008E819F810E94FD1988A190E09195819579
:100BC00091092E813F81280F391F3F832E83488151
:100BD00059812417350730F42A813B81820F931FF6
:100BE0009F838E83123061F48E8D882359F08E8D11
:100BF00081508E8F80E007C080E005C080E003C098
:100C000080E001C080E09E8D9F5F9E8FDF91CF913D
:100C10001F910895FC0140A14423A9F050E02681D2
:100C20003781240F351F37832683828193812817CC
:100C3000390720F08081918197838683CB0166817B
:100C400077810C94FD1908950F931F93CF93DF9331
:100C5000EC010FB6F8940F928AA11816ACF48B89A8
:100C6000811105C011C09B89911104C00DC08E0176
:100C70000D5E1F4FC8013AD68111E5D69AA1915059
:100C80009AA39AA119167CF38FEF8AA30F900FBE37
:100C90000FB6F8940F9289A11816ACF488858111CB
:100CA00005C011C09885911104C00DC08E01085F68
:100CB0001F4FC8011BD68111C6D699A1915099A387
:100CC00099A119167CF38FEF89A30F900FBEDF91C6
:100CD000CF911F910F910895CF93DF93EC010FB641
:100CE000F8940F924881598128A130E07F8D729F3E
:100CF000C001739F900D1124FA01E80FF91FFB83C7
:100D0000EA831E8E5D834C83821B930B840F951F99
:100D10009F838E838FEF89A38AA361110AC0888580
:100D2000882369F0CE010896E1D5813041F45DDE7B
:100D300006C0CE01089615DDCE01439612DD0F9058
:100D40000FBE81E0DF91CF9108950F931F93CF9352
:100D5000DF938823E1F0062F182F83E290E033DC45
:100D6000EC01892BB1F0109FC001112401962BDCFE
:100D700099838883892B31F01F8F08A361E0CE010E
:100D8000ABDF07C0CE01B7DCC0E0D0E002C0C0E0FE
:100D9000D0E0CE01DF91CF911F910F9108959F92E6
:100DA000AF92BF92CF92DF92EF92FF920F931F9379
:100DB000CF93DF93CDB7DEB729970FB6F894DEBF98
:100DC0000FBECDBF7C015B012E833F8348875987CF
:100DD00010E0992493946C0188E0C80ED11C0FB6E2
:100DE000F8940F92F701268D978D291710F0023095
:100DF000A9F4402FB501C701ACDEF701938999230F
:100E000039F0C701439672D5813021F4EEDD02C07E
:100E10008111EBDD0F900FBE81E04BC08E819F8171
:100E2000A885B985892B8A2B8B2B21F40F900FBEB7
:100E300080E03FC0111104C0CE01019699D5192D53
:100E40000F900FBEA9D20FB6F8940F92F70181A1AF
:100E50008F3F09F411A2F70182A18F3F09F412A27A
:100E60000F900FBEBE016A5F7F4FCE01019691D5F4
:100E700081111BC00FB6F8940F92F701968D0F9059
:100E80000FBE878D98130DC04E815F81688579856F
:100E9000C60102D5C701D8DEA0D38111A0CFA5DD40
:100EA0009ECFC701D1DE99D39ACFC701CDDE95D3AE
:100EB00080E029960FB6F894DEBF0FBECDBFDF915C
:100EC000CF911F910F91FF90EF90DF90CF90BF9047
:100ED000AF909F9008959F92AF92BF92CF92DF9272
:100EE000EF92FF920F931F93CF93DF93CDB7DEB7AF
:100EF00029970FB6F894DEBF0FBECDBF7C015B0112
:100F00002E833F834887598710E0992493946C017E
:100F100083E1C80ED11C0FB6F8940F92F701968D9D
:100F2000992369F1C680D780B501C70173DE01112D
:100F300017C0F701868D8150868F80819181892B22
:100F400021F440D6F70193838283F70180858823BB
:100F500091F0C7010896CAD4813069F446DD0BC010
:100F6000F701D782C6828389882329F0C701439677
:100F7000BDD481113ADD0F900FBE81E056C08E8145
:100F80009F81A885B985892B8A2B8B2B21F40F9003
:100F90000FBE80E04AC0111104C0CE010196E8D412
:100FA000192D0F900FBEF8D10FB6F8940F92F701DC
:100FB00081A18F3F09F411A2F70182A18F3F09F4AB
:100FC00012A20F900FBEBE016A5F7F4FCE01019645
:100FD000E0D4811126C00FB6F8940F92F701868DE8
:100FE0000F900FBE811119C080819181892B41F42E
:100FF0000FB6F8940F928281938146D50F900FBE61
:101000004E815F8168857985C60146D4C7011CDEA3
:10101000E4D2811180CFE9DC7ECFC70115DEDDD2BD
:101020007ACFC70111DED9D280E029960FB6F894A5
:10103000DEBF0FBECDBFDF91CF911F910F91FF900B
:10104000EF90DF90CF90BF90AF909F9008950FB634
:10105000F8940F92FC01868D0F900FBE08950FB685
:10106000F8940F92FC01268D0F900FBE878D821B86
:101070000895CEEFD9E188818230F0F3B6DCFBCF62
:10108000CF92DF92EF92FF926B017C01E0912A1ADE
:10109000F0912B1A62837383848395838091D21994
:1010A0009091D319A091D419B091D519C816D90629
:1010B000EA06FB0660F460912A1A70912B1A80915F
:1010C000E4199091E5196E5F7F4F81DB20C060913C
:1010D0002A1A70912B1A8091E6199091E7196E5F88
:1010E0007F4F75DB8091020290910302A091040270
:1010F000B0910502C816D906EA06FB0640F4C09274
:101100000202D0920302E0920402F0920502FF90E4
:10111000EF90DF90CF9008954F925F926F927F9201
:101120008F929F92AF92BF92CF92DF92EF92FF92F7
:101130000F931F93CF93DF934C01EB015A012901C9
:1011400089E290E040DA3C01009709F4D4C0C11470
:10115000D10409F0CBC0C50136DAF301948F838F37
:10116000009719F4C301C7DAC6C0A50165EA70E0AB
:101170000E94061AF1E0AF1AB108F301838D948D35
:10118000A80EB91E8881858F8881882381F0D301BC
:101190005E96FE0131969E01265F3F4FEF018191E1
:1011A0008D938881882319F0E217F307B9F7F301CB
:1011B00016A2102F043008F013E0F301128F17A3CA
:1011C00010A6E3012296CE01DDDAC3010E96DADA2B
:1011D000F3017386628684E090E0A0E0B0E0811BBA
:1011E0009109A109B10986879787A08BB18B778A6E
:1011F000668AA201B401C5014DDBF30191838083AE
:10120000E114F10419F0F701718260820FB6F894CD
:101210000F928091D6198F5F8093D61980912A1AE8
:1012200090912B1A892B51F570922B1A60922A1AE1
:101230008091D619813089F58EEF99E192DA89E0B3
:101240009AE18FDA84E19AE18CDA8FE19AE189DA26
:1012500083EF99E186DA88EE99E183DA89ED99E105
:1012600080DA83EF99E19093E7198093E61988EE8D
:1012700099E19093E5198093E4190FC08091D019FA
:1012800081110BC0E0912A1AF0912B1A828D081758
:1012900020F070922B1A60922A1A8091CC198F5FDD
:1012A0008093CC19F301828D9091D119981710F485
:1012B0008093D119FBE08F9FC0011124BE018250A1
:1012C000964E64DA0F900FBE8091D019882351F0AA
:1012D000E0912A1AF0912B1A828D801728F485DB71
:1012E00081E00AC081E008C081E006C0FC01D48E24
:1012F000C38EC6013ACF8FEFDF91CF911F910F912F
:10130000FF90EF90DF90CF90BF90AF909F908F9025
:101310007F906F905F904F9008950FB6F8940F9262
:10132000009721F480912A1A90912B1A0F900FBEEA
:10133000FC01828D0895AF92BF92CF92DF92EF921F
:10134000FF920F93A12CB12CC12CD12C0F2EF7EDB5
:10135000EF2EF9E1FF2EF02D00E020E030E044E632
:1013600050E068E072E089E398E0D6DE813061F415
:10137000F8948093D0191092D2191092D319109228
:10138000D4191092D519F6DA0F91FF90EF90DF90F3
:10139000CF90BF90AF9008958091CB198F5F8093CD
:1013A000CB1908950FB6F8940F926091D2197091ED
:1013B000D3198091D4199091D5190F900FBE08952B
:1013C000009721F480912A1A90912B1A4D96089536
:1013D0008091D7199091D81908959F92AF92BF929A
:1013E000CF92DF92EF92FF920F931F93CF93DF93F1
:1013F0008091CB198111D8C08091D2199091D319C5
:10140000A091D419B091D5190196A11DB11D809359
:10141000D2199093D319A093D419B093D519C09031
:10142000D219D090D319E090D419F090D519C114E5
:10143000D104E104F104F1F58091E6199091E719E6
:101440002091E4193091E5193093E7192093E619BA
:101450009093E5198093E4198091CD198F5F809363
:10146000CD19E091E619F091E719808181110CC046
:101470008FEF9FEFDC018093020290930302A09311
:101480000402B093050216C0E091E619F091E71945
:101490000780F085E02D0084F185E02D8281938125
:1014A000A481B5818093020290930302A093040269
:1014B000B09305028091020290910302A091040270
:1014C000B0910502C816D906EA06FB0610F4B12C45
:1014D0005AC0B12C0F2EFBE0AF2EF02D992493941F
:1014E000E091E619F091E719908191110CC08FEF0E
:1014F0009FEFDC018093020290930302A093040209
:10150000B093050240C0E091E619F091E719078019
:10151000F085E02DC085D1858A819B81AC81BD811C
:10152000C816D906EA06FB0648F480930202909397
:101530000302A0930402B093050225C08E010E5F42
:101540001F4FC80181D9888D998D892B19F0CE0143
:101550000E967AD92A8D8091D119821710F4209392
:10156000D119A29EC0011124B8018250964E0ED905
:10157000E0912A1AF0912B1A9A8D828D981708F40F
:10158000AFCFB92CADCFE0912A1AF0912B1AE28D92
:101590008BE0E89FF0011124E250F64E808182300A
:1015A00048F0BB24B39406C08091CF198F5F80931D
:1015B000CF19B12C8091CE19882311F0BB24B3949C
:1015C0008B2DDF91CF911F910F91FF90EF90DF90C6
:1015D000CF90BF90AF909F900895CF92DF92EF92FF
:1015E000FF920F931F93CF93DF930FB6F8940F9250
:1015F0008091CB1981508093CB198091CB198111A7
:101600005AC08091D619811129C058C0D7011796A8
:10161000ED91FC911897C085D185CE010E9614D915
:101620008E010E5F1F4FC8010FD99A8D8091D1197D
:10163000891710F49093D119D99EC0011124B801D3
:101640008250964EA3D8E0912A1AF0912B1A9A8DC7
:10165000828D981778F0C092CE190CC00F2EF9ED3C
:10166000EF2EF9E1FF2EF02D0F2EFBE0DF2EF02DF7
:10167000CC24C394F70180818111C8CF8091CF1908
:10168000882391F08091CF19882371F0C1E0A5DE05
:101690008111C093CE198091CF1981508093CF19B9
:1016A0008091CF198111F3CF8091CE19813029F427
:1016B0009CD981E003C080E001C080E00F900FBEA4
:1016C000DF91CF911F910F91FF90EF90DF90CF901E
:1016D0000895CF92DF92EF92FF920F931F93CF93D3
:1016E000DF93EC016A017B0157DE8091D219909162
:1016F000D319A091D419B091D519088119812A81E3
:101700003B81C00ED11EE21EF31E80179107A20777
:10171000B30778F4C016D106E206F30640F5C88296
:10172000D982EA82FB828C159D05AE05BF05A8F41F
:101730000BC0C016D106E206F306A0F08C159D057D
:10174000AE05BF0578F013C080912A1A90912B1A2C
:1017500002967AD8C701B60193DC3FDF81110CC035
:1017600044D90AC0C882D982EA82FB82EDCFC882FE
:10177000D982EA82FB82F1CFDF91CF911F910F9145
:10178000FF90EF90DF90CF900895CF92DF92EF928D
:10179000FF926B017C01672B682B692BC9F0FCDD84
:1017A0008091D2199091D319A091D419B091D519E3
:1017B000C80ED91EEA1EFB1E80912A1A90912B1A80
:1017C000029642D8C701B6015BDC07DF811101C078
:1017D0000CD9FF90EF90DF90CF9008958091CB19B6
:1017E000882321F081E08093CE1908951092CE19BC
:1017F000E091D1194BE0E49FF0011124E250F64E44
:101800008081811110C09BE08091D119815080931B
:10181000D119E091D1199E9FF0011124E250F64EAA
:101820008081882389F38091D119282F30E04BE003
:10183000849FC0011124DC01A250B64E1196ED9197
:10184000FC9112970480F581E02D1296FC93EE93A3
:1018500011978F5F954EE817F90761F484819581A0
:101860004BE0429FF001439FF00D1124E250F64EF1
:10187000928381838BE0829FF001839FF00D11247E
:10188000E250F64E0180F281E02D808591859093A3
:101890002B1A80932A1A0895CF92DF92EF92FF922B
:1018A0006A017B0120912A1A30912B1AB901625FDB
:1018B0007F4F0E94E70380912A1A90912B1A02967B
:1018C0000E9424048091D2199091D319A091D41927
:1018D000B091D519BC01CD016C0D7D1D8E1D9F1DD4
:1018E000CFDBFF90EF90DF90CF9008950F931F9381
:1018F000CF93DF93DC011796ED91FC911897C0858B
:10190000D1858E01025F1F4FC8010E94240480917F
:10191000CB19811116C00C501109C8010E94240472
:101920009A8D8091D119891710F49093D119BBE049
:101930009B9FC0011124B8018250964E0E94C6039D
:1019400005C0B80189ED99E10E94C603E0912A1A09
:10195000F0912B1A9A8D828D891720F481E0809363
:10196000CE1901C080E0DF91CF911F910F910895B2
:101970002091CD19FC0120834091D2195091D319A7
:101980006091D4197091D519418352836383748314
:1019900008958F929F92AF92BF92CF92DF92EF9273
:1019A000FF920F931F93FC01DB010FB6F8940F9287
:1019B0004091D2195091D3196091D4197091D519D1
:1019C0008091CD199081981749F00181128123816E
:1019D0003481401751076207730728F5C180D28010
:1019E000E380F4800D911D912D913C9113974A0154
:1019F0005B018C189D08AE08BF0880169106A206F0
:101A0000B30698F4CF01C41AD50AE60AF70A0C0DFA
:101A10001D1D2E1D3F1D0D931D932D933C9313975C
:101A2000A7DF80E003C081E001C081E00F900FBE1E
:101A30001F910F91FF90EF90DF90CF90BF90AF90EC
:101A40009F908F90089581E08093CE19089500971C
:101A500021F480912A1A90912B1ADC015B96ED916A
:101A6000FC915C978081853A59F4319680E090E052
:101A7000DC010196A11DB11D2191253AD1F30895F4
:101A800080E090E0DC0108950F931F93CF93DF93E4
:101A9000FC01892B09F451C0828DA0912A1AB091C2
:101AA0002B1A5A969C91891708F047C0468557858E
:101AB00060897189772394F0A0912A1AB0912B1A2A
:101AC0005A969C9144E050E060E070E0491B510957
:101AD0006109710946875787608B718B2BE0829F64
:101AE000C00111248250964E248535852817390768
:101AF000E9F48F01EF012296CE010E942404E091C7
:101B00002A1AF0912B1A928DF801928F8091D11997
:101B1000891710F49093D119FBE09F9FC001112405
:101B2000BE018250964E0E94C60307C0A0912A1A99
:101B3000B0912B1A5A968C91828FDF91CF911F9181
:101B40000F9108950F931F93CF93DF93FC01892B7F
:101B500079F180A5815080A7228D97A1291751F195
:101B600081112AC0EF018F010E5F1F4FC8010E9433
:101B700024049FA19A8F44E050E060E070E0491B8C
:101B80005109610971094E875F87688B798B809154
:101B9000D119891710F49093D1192BE0929FC001AD
:101BA0001124B8018250964E0E94C60381E005C000
:101BB00080E003C080E001C080E0DF91CF911F9101
:101BC0000F91089580912A1A90912B1A892B39F040
:101BD000E0912A1AF0912B1A80A58F5F80A780913F
:101BE0002A1A90912B1A0895EF92FF920F931F9348
:101BF000CF93DF938C017B0181E192E0F801918327
:101C0000808361157105A9F0FB0101900020E9F7BF
:101C10003197E61BED3008F0ECE0CE2FD0E0CE019E
:101C2000019681D4F80195838483AE01B7010E94A7
:101C30000D1A80912C1A90912D1AF80197838683A2
:101C400010932D1A00932C1ADF91CF911F910F91B1
:101C5000FF90EF9008950F931F93CF93DF93EC01C4
:101C600080912C1A90912D1A892B09F16BE0CE01ED
:101C700033D58C0164E571E0F8D466E0C8012CD559
:101C80006BE0CE0129D58C0161E371E0EED466E012
:101C9000C80122D580912C1A90912D1ADC01ED916A
:101CA000FC910190F081E02DBE0109950AC06BE026
:101CB000CE0112D5EC0163E171E0D7D466E0CE012C
:101CC0000BD5DF91CF911F910F9108954F925F92A5
:101CD0006F927F928F929F92AF92BF92CF92DF923C
:101CE000EF92FF920F931F93CF93DF93EC013B0191
:101CF00029014801FC0187E192E081939193A12C95
:101D0000B12CC12CD12C7F01042F9E01A20180E0B7
:101D10009FE002DA9F828E825986488620912E1A91
:101D200030912F1A3D832C83D0932F1AC0932E1AF3
:101D30001C861D8640903E1A50903F1A9FEF491A0C
:101D4000590A50923F1A40923E1A5B864A861E8676
:101D50001F86188A198A8114910409F432C08130CF
:101D6000D9F46BE0C401B8D4EC016DE871E07DD426
:101D7000B301CE017AD46BE0CE01AED4EC0164E9BC
:101D800071E073D463E0CE01A7D4B201E9D462E07C
:101D9000A3D466E0A1D415C06BE0C4019DD4EC01CE
:101DA00067E771E062D4B301CE015FD4E881F981C5
:101DB0000280F381E02D62E2CE01099566E0CE015A
:101DC0008BD4DF91CF911F910F91FF90EF90DF9017
:101DD000CF90BF90AF909F908F907F906F905F90CB
:101DE0004F900895EC01E881F9810190F081E02D98
:101DF00009951B821A826FEF7FEFCB01C6DCFBCF08
:101E0000F1DFFC01648765870895CF92DF92EF923E
:101E1000FF920F931F93CF93DF93EC017B018A8195
:101E20009B81CEDA6C016BE0C70156D48C016BEA62
:101E300071E01BD4B601C80118D466E0C8014CD4C7
:101E40008A859B8528853985A701BC01821B930B58
:101E5000E6D28C819D81009711F0B701D6DFDF912A
:101E6000CF911F910F91FF90EF90DF90CF90089549
:101E70000F931F93CF93DF93EC0180912E1A9091D3
:101E80002F1A009711F0BE01C0DF6BE0CE0124D401
:101E90008C0162EB71E0E9D366E0C8011DD480914A
:101EA0003E1A90913F1ABC016F5F7F4FAE0183567F
:101EB0009109B5D2DF91CF911F910F9108958F9223
:101EC0009F92AF92BF92CF92DF92EF92FF920F93C9
:101ED0001F93CF93DF93EC018B018A819B8170DA92
:101EE000BC01C801C2D3D801ED91FC910280F381FD
:101EF000E02D69E0C80109958A819B8161DAFC01C6
:101F000001900020E9F73197E81BF90B389748F466
:101F1000D801ED91FC910280F381E02D69E0C801C8
:101F20000995CE84DF84E888F988A884B9848A81F9
:101F30009B818DDD982E8C848A819B81EED9682FC0
:101F4000C80186D46BE0C8D3EC0166E272E08DD3A1
:101F5000682DCE017DD46BE0BFD3EC0168E272E066
:101F600084D3692DCE0174D46BE0B6D3EC016AE260
:101F700072E07BD3B501CE01F3D36BE0ADD3EC01BE
:101F80006CE272E072D36BE0CE01A6D3EC016EE29C
:101F900072E06BD3B701A601CE0118D4DF91CF91C7
:101FA0001F910F91FF90EF90DF90CF90BF90AF9077
:101FB0009F908F900895CF93DF93EC01CB01DB01CD
:101FC000ED91FC910280F381E02DBE010995CE01D7
:101FD000DF91CF9108950F931F93CF93DF93EC017F
:101FE0008B01BC01C801E7DF66E076D38C819D815F
:101FF000009711F0B801EFDFDF91CF911F910F91A2
:1020000008950F931F93CF93DF93EC016BE064D39C
:102010008C0164E172E029D36BE0C8015DD38C01CF
:102020006FE172E022D366E0C80156D36BE0CE01C7
:1020300053D38C0161EF71E018D36BE0C8014CD32E
:102040008C0162E072E011D36BE0C80145D38C01D2
:102050006EE072E00AD366E0C8013ED36BE0CE01C9
:102060003BD38C016EEC71E000D36BE0C80134D33C
:102070008C016FED71E0F9D26BE0C8012DD38C01BA
:102080006BEE71E0F2D266E0C80126D380912E1A81
:1020900090912F1A009711F0BE019DDF99D9D7DCDE
:1020A000182F6BE0CE0118D3EC016DEB71E0DDD29F
:1020B000612FCE01CDD36BE00FD3EC0168EC71E062
:1020C000D4D264E670E0CE014BD36BE005D3EC01D3
:1020D0006AEC71E0CAD266E0CE01FED2DF91CF9108
:1020E0001F910F910895CF92DF92EF92FF920F937D
:1020F0001F93CF93DF937C018B01DC011A966D91C6
:102100007C911B97C801B1D2F701A285B385FD016F
:1021100001900020E9F73197CE2FCA1BC03160F43F
:10212000D801ED91FC910280F381E02D60E2C801BD
:102130000995CF5FC031A1F76BE172E0C80195D27C
:10214000F701C688D788868597850E942F08682F53
:10215000C8017ED3EC01E881F9810280F381E02D92
:102160006FE20995B601CE01FBD2DC01ED91FC9145
:102170000280F381E02D69E0099566E0C801ACD2E8
:10218000F70184859585009741F0DC01ED91FC9184
:102190000190F081E02DB8010995DF91CF911F9159
:1021A0000F91FF90EF90DF90CF90089506979BCF0F
:1021B0000F93CF93DF931F92CDB7DEB700E02FEFE1
:1021C0003FEFA901BE016F5F7F4FFC0186859785B8
:1021D0000E946B07813011F4898101C08FEF0F904D
:1021E000DF91CF910F910895FC01868597850E941C
:1021F000270891E0811101C090E0892F08950F9385
:10220000CF93DF931F92CDB7DEB76983FC0120899E
:1022100031894289538900E0BE016F5F7F4F868517
:1022200097850E94CF060F90DF91CF910F9108956F
:102230004F925F926F927F928F929F92AF92BF92D6
:10224000CF92DF92EF92FF920F931F93CF93DF9382
:10225000EC01D62EC72E4A015901FCD1B401CE01A2
:102260000696C2DC86E292E09983888388E392E056
:102270009F838E83BD8AAC8A40E061E08D2D0E94F1
:10228000A5069F878E87E88AF98A0A8B1B8BDE8AD0
:10229000CF8ADF91CF911F910F91FF90EF90DF9048
:1022A000CF90BF90AF909F908F907F906F905F90F6
:1022B0004F900895CF92DF92EF92FF92CF93DF93EA
:1022C000EC01688179818A819B810F2EF8EECF2EF7
:1022D000F3E0DF2EE12CF12CF02DA70196010E94F6
:1022E0009D199B01AC0160E472E48FE090E00E94D4
:1022F0007A19A70196010E949D1969017A01AC81A2
:10230000BD8120E432E44FE050E00E94E41920E86F
:1023100034E84EE150E00E94BF19C701B601620FD8
:10232000731F841F951FDF91CF91FF90EF90DF9077
:10233000CF900895CF92DF92EF92FF920F931F9369
:10234000CF93DF93CDB7DEB72F970FB6F894DEBFEC
:102350000FBECDBF6C018B01DB016D917D918D9125
:102360009C9128EE33E040E050E0E7D7BA01A901A4
:10237000C6012CD2D601ED91FC910280F381E02DB3
:102380006EE2C6010995C80195DF8E01015F1F4FFE
:10239000FE0139967F012AE030E040E050E0EFD7BF
:1023A000E62F29833A834B835C8369817A818B8111
:1023B0009C8120E32E0FD8012E938D01AE15BF0511
:1023C00051F71F86BE01675F7F4FC6014ED1C60120
:1023D0002F960FB6F894DEBF0FBECDBFDF91CF9121
:1023E0001F910F91FF90EF90DF90CF900895CF93C2
:1023F000DF93EC010FB6F8940F9280912401909135
:1024000025019D838C830E94D209688379838A8306
:102410009B830F900FBECE01DF91CF9108958F92D5
:102420009F92AF92BF92CF92DF92EF92FF920F9363
:102430001F93CF93DF936C015B01EA0163E0CA0154
:102440004BD1CA14DB0408F05BC0760184E1E80ECE
:10245000F11C8C2C9D2CB601CE0182D16BE03CD1BD
:1024600060E372E002D18601F80161918F01CE0133
:10247000EFD1E881F9810280F381E02D60E2CE01A5
:102480000995E016F10681F7E881F9810280F38170
:10249000E02D60E2CE010995082D192DF80161911A
:1024A0008F01653A49F4E881F9810280F381E02DDA
:1024B00060E2CE01099514C080EE860F8F3540F49E
:1024C000E881F9810280F381E02DCE01099508C0F1
:1024D000E881F9810280F381E02D6EE2CE01099559
:1024E000E016F106D9F6F4E1CF0ED11C66E0CE017C
:1024F000F3D084E1E80EF11CCA14DB0408F4A9CF80
:1025000062E0CE01E9D0DF91CF911F910F91FF9052
:10251000EF90DF90CF90BF90AF909F908F900895F5
:102520000C94E30208950C94E302089508950F9328
:102530001F93CF93DF93EC0141113AC086EC90E0FA
:102540009983888300EC10E01B830A83E1ECF0E0C0
:10255000FD83EC8388E1808386E08093C200109243
:10256000C500CB01A0E0B0E0880F991FAA1FBB1FD8
:10257000880F991FAA1FBB1F9C01AD01220F331F9B
:10258000441F551F220F331F441F551F60E074E284
:1025900084EF90E0D2D62093C400F801808181605E
:1025A000808380E28E8380E88F8380E4888739C0CF
:1025B0008EEC90E09983888308EC10E01B830A83FB
:1025C000E9ECF0E0FD83EC8388E1808386E0809392
:1025D000CA001092CD00CB01A0E0B0E0880F991F97
:1025E000AA1FBB1F880F991FAA1FBB1F9C01AD010B
:1025F000220F331F441F551F220F331F441F551F27
:1026000060E074E284EF90E098D62093CC00F8016B
:1026100080818160808380E28E8380E88F8380E484
:102620008887E881F98180818081DF91CF911F9136
:102630000F91089581E0089580E0089580E0089565
:102640000895DC01ED91FC910280F381E02D6CE0B6
:1026500009950895FC018EE392E0918380838AE0DE
:10266000828383E08583148208950F931F93CF9311
:10267000DF938C01FB01DC0114968C91811104C065
:102680006081611117C023C0D80114961C92EB0120
:10269000219664916623D9F0D801ED91FC910280D6
:1026A000F381E02DC8010995FE0164912196611125
:1026B000F3CF0DC0EF012196D801ED91FC9102807E
:1026C000F381E02DC801099569916111F5CFDF9182
:1026D000CF911F910F910895CF93DF93EC01462F77
:1026E00050E04C305105C0F5FA01EA59FF4F63C67E
:1026F00082E08A8331C088E08A832EC08AE08A83A0
:102700002BC080E18A8328C0E881F9810280F381AF
:10271000E02D6DE00995E881F9810280F381E02DDB
:102720006AE0CE01099518C0E881F9810284F38539
:10273000E02D099511C0E881F9810084F185E02D33
:1027400009950AC081E08C8307C0809107028D83C0
:1027500003C0809106028A83CE01DF91CF91089554
:10276000FF920F931F93CF93DF93CDB7DEB761979F
:102770000FB6F894DEBF0FBECDBF8C01F62E972F9B
:10278000F8014281403121F0483011F0423031F4FB
:10279000692FC8015DD06F2D5BD00BC050E0BE012A
:1027A0006F5F7F4F8F2D73D6BE016F5F7F4FC80164
:1027B0005CDFC80161960FB6F894DEBF0FBECDBFD7
:1027C000DF91CF911F910F91FF900895DF92EF92CB
:1027D000FF920F931F93CF93DF93CDB7DEB7A197EF
:1027E0000FB6F894DEBF0FBECDBF8C01D42EE52E00
:1027F000F62E972FF8012281203121F0283011F098
:10280000223051F4692FC80123D06F2D21D06E2DB5
:102810001FD06D2D1DD00DC030E0AE014F5F5F4F5A
:102820006D2D7E2D8F2D08D6BE016F5F7F4FC801A5
:102830001CDFC801A1960FB6F894DEBF0FBECDBF56
:10284000DF91CF911F910F91FF90EF90DF9008954E
:10285000CF92DF92EF92FF920F931F93CF93DF936C
:10286000CDB7DEB729970FB6F894DEBF0FBECDBF48
:102870008C01E62EDC0113968C911397882341F08E
:10288000ED91FC910280F381E02DC801099554C0BF
:10289000F8014281423019F56894CC24C3F8D12C58
:1028A0006894FF24F7F88F2D8E2151F0D801ED9117
:1028B000FC910280F381E02D61E3C801099509C014
:1028C000D801ED91FC910280F381E02D60E3C80115
:1028D0000995F694B1E0CB1AD10829F72DC0403103
:1028E000F9F462956F700190F081E02D0280F38120
:1028F000E02D6A3010F0695C01C0605DC801099587
:102900006E2D6F70D801ED91FC910280F381E02D66
:102910006A3010F0695C01C0605DC80109950CC0A7
:1029200050E0BE016F5F7F4F8E2D90E0B0D5BE01AD
:102930006F5F7F4FC80199DEC80129960FB6F894E2
:10294000DEBF0FBECDBFDF91CF911F910F91FF90E2
:10295000EF90DF90CF900895DC011896ED91FC91F7
:10296000199780811C964C911C97842329F009C0EB
:102970002150310919F4089521E23EE49081942315
:10298000B9F390811E968C911E97892B80831696A1
:10299000ED91FC91179760830895FC018785811163
:1029A00021C02091381A3091391A8091361A9091AD
:1029B000371A28173907E9F3E0913A1AF0913B1AD0
:1029C000E20FF31F80812F5F3F4F2032310528F443
:1029D0003093391A2093381A08951092391A1092A8
:1029E000381A08952091321A3091331A8091301A92
:1029F0009091311A28173907E9F3E091341AF091D0
:102A0000351AE20FF31F80812F5F3F4F20323105CF
:102A100028F43093331A2093321A08951092331AFF
:102A20001092321A0895FC01878581110EC081E051
:102A30004091381A5091391A2091361A3091371A2C
:102A40004217530779F480E0089581E04091321AEB
:102A50005091331A2091301A3091311A421753078E
:102A600009F480E00895DC01ED91FC910280F3818E
:102A7000E02D6CE009950895EF92FF921F93CF939C
:102A8000DF93EC017B01142FE5DD412FB701CE016F
:102A900006964DDD8EE492E0998388831F8711119D
:102AA00015C0E1ECF0E080818068808380E290E0F6
:102AB0003ADD90933B1A80933A1A1092391A109289
:102AC000381A1092371A1092361A14C0E9ECF0E056
:102AD00080818068808380E290E025DD9093351AC4
:102AE0008093341A1092331A1092321A1092311ABB
:102AF0001092301ADF91CF911F91FF90EF900895BF
:102B00001F920F920FB60F9211240BB60F922F93B4
:102B10003F938F939F93EF93FF932091C600E09193
:102B20003A1AF0913B1A8091361A9091371AE80FB1
:102B3000F91F20838091361A9091371A01968032BE
:102B4000910560F49093371A8093361A2091381AC1
:102B50003091391A82179307F1F40CC01092371A8A
:102B60001092361A8091381A9091391A181619064F
:102B700091F40EC001968032910528F49093391A91
:102B80008093381A08C01092391A1092381A03C06C
:102B900081E090E0F3CFFF91EF919F918F913F9172
:102BA0002F910F900BBE0F900FBE0F901F90189596
:102BB0001F920F920FB60F9211240BB60F922F9304
:102BC0003F938F939F93EF93FF932091CE00E091DB
:102BD000341AF091351A8091301A9091311AE80F19
:102BE000F91F20838091301A9091311A019680321A
:102BF000910560F49093311A8093301A2091321A23
:102C00003091331A82179307F1F40CC01092311AE5
:102C10001092301A8091321A9091331A18161906B0
:102C200091F40EC001968032910528F49093331AE6
:102C30008093321A08C01092331A1092321A03C0CD
:102C400081E090E0F3CFFF91EF919F918F913F91C1
:102C50002F910F900BBE0F900FBE0F901F901895E5
:102C6000CF92DF92EF92FF920F931F93CF93DF9358
:102C700014BE0FB6F894A895809160008861809387
:102C80006000109260000FBE80E190E049DCEC0132
:102C900041E060E875E2F0DE67E0CE011DDD6BE04B
:102CA0001BDD6C0163E372E0E0DC66E0C60114DD6D
:102CB00088E190E035DC6C011AE0E12EF12C00E0B7
:102CC00010E09E014AE552E060E270E0B1DAD09295
:102CD0003D1AC0923C1A82E190E022DC8E0124E091
:102CE00031E041E060E672E079D082E190E018DC0A
:102CF00028E131E042E068E672E060D00E949B0982
:102D000080E090E0DF91CF911F910F91FF90EF90C5
:102D1000DF90CF900895CF93DF9300D000D0CDB750
:102D2000DEB78C010E94D20969837A838B839C83EE
:102D300082E090E0F5DB7C01F801668177810E94FA
:102D40002E0280E18DB981E3809390008BE0809327
:102D500091000F2EFAE9CF2ED12CF02D46E060E045
:102D6000C7010E9472025C01B694A794B694A7941E
:102D7000B701F801868197810E94AF0266E0ACDC62
:102D800068E572E080E090E00E94C50BF601B18238
:102D9000A082F80186859785A089B1890196A11D39
:102DA000B11D86879787A08BB18B44E650E060E029
:102DB00070E0CE0101960E94690BD0CF0F931F9354
:102DC000CF93DF93EC010E94660E83E792E0998334
:102DD0008883DF91CF911F910F9108950F931F93D7
:102DE000CF93DF93EC010E94660E8FE792E0998308
:102DF0008883DF91CF911F910F9108950F931F93B7
:102E0000CF93DF93EC016BE08E819F8165DC8C01B9
:102E10006EE473E02ADC6BE0C8015EDC8C0164E7E1
:102E200073E023DC66E0C80157DC6BE08E819F8194
:102E300053DC8C016DE273E018DC66E0C8014CDC09
:102E40006BE08E819F8148DC8C0166E073E00DDCD5
:102E500066E0C80141DC6BE08E819F813DDC8C0126
:102E600068EE72E002DC66E0C80136DC6BE08E8161
:102E70009F8132DC8C0169EC72E0F7DB66E0C8010F
:102E80002BDC6BE08E819F8127DC8C0162EB72E092
:102E9000ECDB66E0C80120DC6BE08E819F811CDCEE
:102EA000EC0163EA72E0E1DB66E0CE0115DCDF9164
:102EB000CF911F910F9108958F929F92AF92BF92E1
:102EC000CF92DF92EF92FF920F931F93CF93DF93F6
:102ED00000D000D000D0CDB7DEB78C0119821A82A5
:102EE0001B821C821E821D82C0902801D090290165
:102EF0000E94AC035C01CE01019679DA4C0166E0D8
:102F0000F80186819781E8DB6BE0E6DB7C0160E518
:102F100072E0ABDB6BE0C701DFDB7C0166E772E0F0
:102F2000A4DB66E0C701D8DB6BE0D6DB7C0162E89E
:102F300072E09BDBB401C701FDD96BE0CDDB7C0106
:102F400060E972E092DBB501C7010ADC7C0167E74A
:102F500072E08BDB48E357E160E070E0C70136DCEC
:102F60006BE0BADB7C0169E972E07FDBB601C70187
:102F7000F7DB66E0B1DB66E0AFDBF80186819781C5
:102F800040D866E0F80186819781A6DBF80186814A
:102F900097810E942B0E26960FB6F894DEBF0FBEC7
:102FA000CDBFDF91CF911F910F91FF90EF90DF90F8
:102FB000CF90BF90AF909F908F900895CF93DF9365
:102FC00000D000D000D0CDB7DEB78C0119821A82B4
:102FD0001B821C821E821D826BE0DC0116968D9185
:102FE0009C91179779DB7C0162E074E03EDB66E040
:102FF000C70172DBC12CD12C7601512C612C712CB4
:10300000812CF8018485882321F0813009F49AC04D
:1030100048C186819781DC01ED91FC910480F581A6
:10302000E02D0995882309F452C1F8018681978122
:10303000DC01ED91FC910680F781E02D0995982E39
:10304000B8E68B1761F1B81750F0EFE38E1739F13E
:10305000F4E68F17F1F083E0981252C03AC0A3E76C
:103060008A17A1F0B4E78B1721F0EEE68E1348C063
:1030700019C0CE010196BBD9BC01D80116968D911D
:103080009C91179757D966E027DB21C1C80114DF4F
:103090001EC1F801868197810E94380F18C1C801AE
:1030A000ADDE15C16BE0D80116968D919C911797F6
:1030B00013DB7C0161ED73E0D8DA66E0C7010CDB5D
:1030C00061E0C8010E94010FC52CD62CE72CF82C1A
:1030D000FEC06BE0F80186819781FEDA8C0163EC1B
:1030E00073E0C3DA66E0C801F7DA9BE088E10FB667
:1030F000F894A895809360000FBE90936000FFCF76
:10310000D8011696AD90BC901797D501ED91FC9122
:103110000280F381E02D62E2C5010995D501ED91B0
:10312000FC910280F381E02D692DC50109956BE0CA
:10313000C501D2DA5C016BEB73E097DA66E0C5019A
:10314000CBDAC5C0F80186819781DC01ED91FC9155
:103150000480F581E02D0995882309F479C0F801F0
:1031600086819781DC01ED91FC910680F781E02D4D
:103170000995982E80ED890D8A3048F5F8018681F1
:103180009781DC01ED91FC910280F381E02D692DA6
:103190000995CC0CDD1CEE1CFF1CD701C601880F65
:1031A000991FAA1FBB1F880F991FAA1FBB1FC80EFC
:1031B000D91EEA1EFB1E892D90E0C097092E000C37
:1031C000AA0BBB0BC80ED91EEA1EFB1E80C0BAE0BC
:1031D0009B1207C069E772E0F8018681978145DAA2
:1031E00076C0FDE09F1619F08BE1981218C066E0DA
:1031F000D80116968D919C9117976EDA6BE06CDA78
:103200005C016AEA73E031DAB701A601C501DEDAD2
:1032100066E062DA60E0C8010E94010F58C06BE00E
:10322000F8018681978158DA5C0167E973E01DDA5D
:10323000D501ED91FC910280F381E02D692DC5014E
:1032400009956BE0C50148DA67EA73E00EDA3FC022
:1032500080913C1A90913D1ADC01ED91FC91048023
:10326000F581E02D0995882391F1D8011696ED910D
:10327000FC9117970190F081E02DA280B38080919E
:103280003C1A90913D1ADC01ED91FC910680F7818A
:10329000E02D0995682FF80186819781F501099540
:1032A00016C06BE08681978117DA8C016AE773E0BC
:1032B000DCD966E0C80110DA9BE088E10FB6F8942B
:1032C000A895809360000FBE90936000FFCFF80137
:1032D00086859785A089B1890196A11DB11D868734
:1032E0009787A08BB18B61E070E080E090E00E9456
:1032F000C50B87CEDB018F939F9366D0BF91AF91B3
:10330000A29F800D911DA39F900DB29F900D11243F
:103310000895AA1BBB1B51E107C0AA1FBB1FA6171C
:10332000B70710F0A61BB70B881F991F5A95A9F76E
:1033300080959095BC01CD010895A1E21A2EAA1B9B
:10334000BB1BFD010DC0AA1FBB1FEE1FFF1FA21755
:10335000B307E407F50720F0A21BB30BE40BF50B52
:10336000661F771F881F991F1A9469F760957095DB
:10337000809590959B01AC01BD01CF010895052E6C
:1033800097FB16F400940FD057FD05D0D6DF07FC4D
:1033900002D046F408C050954095309521953F4F96
:1033A0004F4F5F4F089590958095709561957F4F31
:1033B0008F4F9F4F0895EE0FFF1F0024001C0BBE80
:1033C0000790F691E02D099409D0A59F900DB49F28
:1033D000900DA49F800D911D11240895A29FB0010E
:1033E000B39FC001A39F700D811D1124911DB29F39
:1033F000700D811D1124911D0895FB01DC0102C097
:1034000001900D9241505040D8F70895DC0101C061
:103410006D9341505040E0F70895FB01DC014150AD
:10342000504048F001900D920020C9F701C01D9254
:1034300041505040E0F708952532310518F422300C
:1034400008F004C0FA011082CA010895BB27FA01EE
:10345000A62F6217710581059105330B30FB66F0CD
:10346000AA27660F771F881F991FAA1FA21710F09F
:10347000A21B63953850A9F7A05DAA3308F0A95D97
:10348000A19336F7B111B1931082CA0123C045321E
:10349000510518F4423008F004C0FB011082CB0142
:1034A0000895BB27FB015527AA27880F991FAA1F3C
:1034B000A41710F0A41B83955051B9F7A05DAA334F
:1034C00008F0A95DA193009779F7B111B19311921A
:1034D000CB0100C0DC01FC01672F71917723E1F77C
:1034E000329704C07C916D9370836291AE17BF07D1
:0834F000C8F30895F894FFCF22
:1034F8003717FFFFFFFF0A0349444C45000000004F
:103508000096120000000096125F0F7478745F71C5
:103518000900000000001A13FF10F410D81020133F
:1035280021137310FAFF0000D610000000001A13D0
:1035380096121E131C1320132113000000001A13E7
:10354800AC141315CD14201333155072696E740022
:1035580055736572496E7400427269676874000039
:103568000000008B165F0F2F000D0000000000DE2A
:04357800175F0F00CA
:00000001FF
