:10000000F6C1000013C2000011C200000FC20000C0
:100010000DC200000BC2000009C2000007C20000B0
:1000200005C2000003C2000001C20000FFC10000C1
:10003000FDC10000FBC10000F9C10000F7C10000D4
:10004000F5C10000F3C10000F1C10000EFC10000E4
:10005000EDC10000EBC10000E9C10000E7C10000F4
:10006000E5C100000C942615E1C10000DFC10000CD
:10007000DDC10000DBC10000D9C10000D7C1000014
:10008000D5C10000D3C10000D1C10000CFC1000024
:100090000C947E15CBC10000C9C10000C7C100008F
:1000A000C5C10000C3C10000C1C10000BFC1000044
:1000B000BDC10000BBC10000B9C10000EFC4000019
:1000C000B5C10000B3C10000B1C100001E1321136F
:1000D00024132713521352132A133A1341134B13A9
:1000E0004F1348134E6F207368617265642064611A
:1000F0007461206974656D7320746F207072696E0D
:1001000074002D2D2D2D2020202020202020202087
:1001100020202D2D2D2D202020202D2D2D2D2D2D5D
:100120002D2D2D2D0053686172652F5175657565F4
:1001300020202020205479706520202020467265E0
:10014000652F546F74616C004552524F5220637298
:10015000656174696E67207461736B20220054615D
:10016000736B2022002220637265617465642C2009
:10017000737461636B206174203078005461736B19
:100180003A20005461736B3A2049444C450049447D
:100190004C45090930092D09002F0009092D002DB2
:1001A0002D2D2D09092D2D2D2D092D2D2D2D2D0018
:1001B000092D2D2D2D2D2D2D2D2D2D00092D2D2DE4
:1001C0002D004E616D6509095072692E09537461E5
:1001D00074650009467265652F546F74616C00097F
:1001E00052756E73005461736B0909202009200059
:1001F00009537461636B00090009002F00090009AD
:10020000002020004D45343035204C6162203120E3
:100210005374617274696E672050726F6772616D9A
:10022000004D45343035204C6162203120556E6DD3
:100230006F6469666965642050726F6772616D20D2
:1002400056302E303120004D617220333020323054
:1002500031360053797374656D2074696D653A2089
:10026000002C20486561703A20002C204F43523505
:10027000413A20002020683A202020202048414C8C
:10028000502100202043746C2D433A205265736541
:100290007420746865204156520020206E3A202058
:1002A000202020456E7465722061206E756D626538
:1002B00072202864656D6F29002020643A20202078
:1002C0002020537461636B2064756D7020666F72BB
:1002D000207461736B73002020733A20202020204B
:1002E00056657273696F6E20616E642073657475F4
:1002F0007020696E666F726D6174696F6E00202088
:10030000743A202020202053686F7720746865207D
:1003100074696D65207269676874206E6F77004D2F
:1003200045343035204C6162203120556E6D6F644C
:1003300069666965642050726F6772616D2056301E
:100340002E303120002068656C7000496C6C656748
:10035000616C2073746174652120526573657474D7
:10036000696E6720415652003C696E76616C696423
:100370002063686172202200223E004E756D626526
:100380007220656E74657265643A2000223A2057C7
:1003900054463F00526573657474696E6720415618
:1003A0005200456E74657220646563696D616C20EE
:1003B0006E756D65726963206469676974732C205A
:1003C0007468656E2052455455524E206F72204518
:1003D000534300507265737320276827206F722083
:1003E000273F2720666F722068656C70000011241B
:1003F0001FBECFEFD1E2DEBFCDBF12E0A0E0B2E082
:10040000ECE4F4E300E00BBF02C007900D92A438C7
:10041000B107D9F72AE1A4E8B2E001C01D92AE33DA
:10042000B207E1F70E94D6150C94241AE9CDFC011D
:1004300071836083ECE7F0E01082808180648083C8
:10044000EAE7F0E080E8808380818560808308951A
:10045000862F8F7009F0682FECE7F0E08081807FB5
:1004600080838081807E682B6083EAE7F0E0808172
:100470008F7D80838081806480832091840230918D
:100480008502203187E238072CF4808190E0807863
:10049000892BB9F7209179008091780090E0922B18
:1004A0000895DF92EF92FF920F931F93CF93DF9304
:1004B0001092870210928602042F10E01016110687
:1004C000ACF4D62E7C01C0E0D0E06D2DC701C0DFBA
:1004D0002091860230918702820F931F90938702AA
:1004E000809386022196C017D10779F78091860202
:1004F00090918702B8010E942019CB017093870266
:1005000060938602DF91CF911F910F91FF90EF9042
:10051000DF9008950F931F93CF93DF93EC01E3D601
:100520008091880281111DC0EDE8F2E082E992E03D
:100530009183808313821282E9E8F2E087E397E1F6
:100540009383828311821082A1E9B2E014969C9376
:100550008E9313971296FC93EE93119781E08093FC
:100560008802209709F45FC09E012C5F3F4F2396BD
:10057000C633D74108F05AC0E0918D02F0918E0247
:10058000ADE8B2E002C0DF01FC01828193818217F5
:10059000930720F4808191810097A9F7C2E0E938A0
:1005A000FC0709F446C0CD91DC9111978E010C5FD8
:1005B0001F4F808191818D939C9382819381821BB7
:1005C000930B8930910510F1BF01620F731FDB019E
:1005D00013969C938E9312973383228312964D9198
:1005E0005C9113978DE892E001C0CD01EC01A881E8
:1005F000B98112962D913C91139724173507A8F3D2
:10060000EB01B983A883DC016D937C938091000298
:100610009091010222813381821B930B90930102FE
:100620008093000208C000E010E005C000E010E088
:1006300002C000E010E078D7C801DF91CF911F9190
:100640000F9108950F931F93CF93DF93009731F18C
:10065000EC018C010450110946D6F8014281538106
:10066000ADE8B2E001C0DF01ED91FC91119722816C
:10067000338124173507B8F32497F983E8830D9362
:100680001C9320910002309101028A819B81820F8C
:10069000931F909301028093000246D7DF91CF9180
:1006A0001F910F9108958091000290910102089589
:1006B000FC010396928381834FEF5FEFBA0143837E
:1006C000548365837683908787839287818710829E
:1006D0000895FC01138612860895CF93DF939C0141
:1006E000FB01DC011196CD91DC911297D583C48377
:1006F0008E819F81978386838E819F81DC011596F1
:100700007C936E9314977F836E8333872287F901DE
:1007100080818F5F8083DF91CF9108950F931F9326
:10072000CF93DF93EB01088119812A813B810F3F31
:100730004FEF14072407340721F4FC01A185B2858B
:1007400011C0DC01139601C0DF011496ED91FC91FC
:10075000159740815181628173810417150726071F
:10076000370790F71496ED91FC911597FD83EC8374
:10077000D783C683BF83AE831596DC93CE9314973D
:100780009B878A87FC0120812F5F2083DF91CF9197
:100790001F910F910895CF93DF93FC01A285B3853C
:1007A000C481D581868197819F838E83C681D781BD
:1007B000848195819D838C831196CD91DC911297D4
:1007C000CE17DF0731F48E819F8112969C938E9312
:1007D0001197138612868C9181508C93DF91CF9163
:1007E000089590933D1A80933C1A31E1FC013083C7
:1007F000319722E220833197A3E3A083319760836E
:100800003197708331971082319760E86083319718
:100810001082319762E06083319763E060833197A3
:1008200064E06083319765E06083319766E06083C0
:10083000319767E06083319768E06083319769E0C2
:100840006083319760E1608331973083319732E183
:100850003083319733E13083319734E130833197FE
:1008600035E13083319736E13083319737E130839A
:10087000319738E13083319739E13083319730E275
:100880003083319731E2308331972083319723E2EF
:1008900020833197408331975083319726E220831C
:1008A000319727E22083319728E22083319729E28C
:1008B0002083319720E32083319721E3208386979B
:1008C000089587E0809329018FEC809328018AE0C6
:1008D00080932101E3E7F0E0808182608083A09132
:1008E000281AB091291ACD91CDBFDD91DEBFFF91BD
:1008F000EF91DF91CF91BF91AF919F918F917F91B8
:100900006F915F914F913F912F911F910F91FF90A8
:10091000EF90DF90CF90BF90AF909F908F907F909F
:100920006F905F904F903F902F901F900F900FBE51
:100930000F90089581E008950F920FB6F8940F92EA
:100940001F9211242F923F924F925F926F927F924B
:100950008F929F92AF92BF92CF92DF92EF92FF92CF
:100960000F931F932F933F934F935F936F937F93B7
:100970008F939F93AF93BF93CF93DF93EF93FF93A7
:10098000A091281AB091291A0DB60D920EB60D92AB
:10099000CCD6A091281AB091291ACD91CDBFDD9166
:1009A000DEBFFF91EF91DF91CF91BF91AF919F910A
:1009B0008F917F916F915F914F913F912F911F91F7
:1009C0000F91FF90EF90DF90CF90BF90AF909F90EE
:1009D0008F907F906F905F904F903F902F901F90DF
:1009E0000F900FBE0F9008950F920FB6F8940F92CC
:1009F0001F9211242F923F924F925F926F927F929B
:100A00008F929F92AF92BF92CF92DF92EF92FF921E
:100A10000F931F932F933F934F935F936F937F9306
:100A20008F939F93AF93BF93CF93DF93EF93FF93F6
:100A3000A091281AB091291A0DB60D920EB60D92FA
:100A400073D4811172D6A091281AB091291ACD9130
:100A5000CDBFDD91DEBFFF91EF91DF91CF91BF91CF
:100A6000AF919F918F917F916F915F914F913F9146
:100A70002F911F910F91FF90EF90DF90CF90BF903B
:100A8000AF909F908F907F906F905F904F903F902E
:100A90002F901F900F900FBE0F900895A5DF18950F
:100AA0001F93CF93DF93EC01142F88A181110BC00A
:100AB00088819981892B09F046C08A819B81E9D779
:100AC0001B821A8247C0411118C0482F50E08C8108
:100AD0009D810E94A71928A18C819D81820F911D63
:100AE0009D838C832A813B818217930770F18881D3
:100AF00099819D838C8380E02DC0482F50E08E81AA
:100B00009F810E94A71988A190E0919581959109F4
:100B10002E813F81280F391F3F832E8348815981C1
:100B20002417350730F42A813B81820F931F9F835E
:100B30008E83123061F48E8D882359F08E8D815012
:100B40008E8F80E007C080E005C080E003C080E0B9
:100B500001C080E09E8D9F5F9E8FDF91CF911F919E
:100B60000895FC0140A14423A9F050E0268137817B
:100B7000240F351F378326838281938128173907F5
:100B800020F08081918197838683CB016681778174
:100B90000C94A71908950F931F93CF93DF93EC0143
:100BA0000FB6F8940F928AA11816ACF48B898111B4
:100BB00005C011C09B89911104C00DC08E010D5E4E
:100BC0001F4FC8013AD68111E5D69AA191509AA338
:100BD0009AA119167CF38FEF8AA30F900FBE0FB660
:100BE000F8940F9289A11816ACF48885811105C07C
:100BF00011C09885911104C00DC08E01085F1F4F70
:100C0000C8011BD68111C6D699A1915099A399A16B
:100C100019167CF38FEF89A30F900FBEDF91CF9150
:100C20001F910F910895CF93DF93EC010FB6F894C5
:100C30000F924881598128A130E07F8D729FC001B9
:100C4000739F900D1124FA01E80FF91FFB83EA83CB
:100C50001E8E5D834C83821B930B840F951F9F8395
:100C60008E838FEF89A38AA361110AC088858823A8
:100C700069F0CE010896E1D5813041F45DDE06C011
:100C8000CE01089615DDCE01439612DD0F900FBE02
:100C900081E0DF91CF9108950F931F93CF93DF935E
:100CA0008823E1F0062F182F83E290E033DCEC017B
:100CB000892BB1F0109FC001112401962BDC998380
:100CC0008883892B31F01F8F08A361E0CE01ABDF51
:100CD00007C0CE01B7DCC0E0D0E002C0C0E0D0E089
:100CE000CE01DF91CF911F910F9108959F92AF9206
:100CF000BF92CF92DF92EF92FF920F931F93CF9309
:100D0000DF93CDB7DEB729970FB6F894DEBF0FBEDD
:100D1000CDBF7C015B012E833F834887598710E05C
:100D2000992493946C0188E0C80ED11C0FB6F894F6
:100D30000F92F701268D978D291710F00230A9F434
:100D4000402FB501C701ACDEF7019389992339F033
:100D5000C701439672D5813021F4EEDD02C08111C6
:100D6000EBDD0F900FBE81E04BC08E819F81A88587
:100D7000B985892B8A2B8B2B21F40F900FBE80E035
:100D80003FC0111104C0CE01019699D5192D0F90C5
:100D90000FBEA9D20FB6F8940F92F70181A18F3F31
:100DA00009F411A2F70182A18F3F09F412A20F905A
:100DB0000FBEBE016A5F7F4FCE01019691D58111B2
:100DC0001BC00FB6F8940F92F701968D0F900FBECF
:100DD000878D98130DC04E815F8168857985C60126
:100DE00002D5C701D8DEA0D38111A0CFA5DD9ECF4B
:100DF000C701D1DE99D39ACFC701CDDE95D380E06C
:100E000029960FB6F894DEBF0FBECDBFDF91CF910C
:100E10001F910F91FF90EF90DF90CF90BF90AF9018
:100E20009F9008959F92AF92BF92CF92DF92EF92E0
:100E3000FF920F931F93CF93DF93CDB7DEB7299720
:100E40000FB6F894DEBF0FBECDBF7C015B012E83D1
:100E50003F834887598710E0992493946C0183E17C
:100E6000C80ED11C0FB6F8940F92F701968D9923F6
:100E700069F1C680D780B501C70173DE011117C0C3
:100E8000F701868D8150868F80819181892B21F495
:100E900040D6F70193838283F7018085882391F000
:100EA000C7010896CAD4813069F446DD0BC0F7014A
:100EB000D782C6828389882329F0C7014396BDD48F
:100EC00081113ADD0F900FBE81E056C08E819F8167
:100ED000A885B985892B8A2B8B2B21F40F900FBE07
:100EE00080E04AC0111104C0CE010196E8D4192D4A
:100EF0000F900FBEF8D10FB6F8940F92F70181A1B1
:100F00008F3F09F411A2F70182A18F3F09F412A2C9
:100F10000F900FBEBE016A5F7F4FCE010196E0D4F5
:100F2000811126C00FB6F8940F92F701868D0F90AD
:100F30000FBE811119C080819181892B41F40FB6B8
:100F4000F8940F928281938146D50F900FBE4E8107
:100F50005F8168857985C60146D4C7011CDEE4D26D
:100F6000811180CFE9DC7ECFC70115DEDDD27ACFDB
:100F7000C70111DED9D280E029960FB6F894DEBF02
:100F80000FBECDBFDF91CF911F910F91FF90EF90DA
:100F9000DF90CF90BF90AF909F9008950FB6F894D8
:100FA0000F92FC01868D0F900FBE08950FB6F89436
:100FB0000F92FC01268D0F900FBE878D821B089526
:100FC000CCEFD9E188818230F0F3B6DCFBCFCF9251
:100FD000DF92EF92FF926B017C01E091281AF09171
:100FE000291A62837383848395838091D0199091A9
:100FF000D119A091D219B091D319C816D906EA0611
:10100000FB0660F46091281A7091291A8091E21908
:101010009091E3196E5F7F4F81DB20C06091281AA9
:101020007091291A8091E4199091E5196E5F7F4FB4
:1010300075DB8091020290910302A0910402B091AD
:101040000502C816D906EA06FB0640F4C092020261
:10105000D0920302E0920402F0920502FF90EF901A
:10106000DF90CF9008954F925F926F927F928F9210
:101070009F92AF92BF92CF92DF92EF92FF920F9327
:101080001F93CF93DF934C01EB015A01290189E2B1
:1010900090E040DA3C01009709F4D4C0C114D104B7
:1010A00009F0CBC0C50136DAF301948F838F009726
:1010B00019F4C301C7DAC6C0A50165EA70E00E9451
:1010C000B019F1E0AF1AB108F301838D948DA80E29
:1010D000B91E8881858F8881882381F0D3015E962F
:1010E000FE0131969E01265F3F4FEF0181918D9366
:1010F0008881882319F0E217F307B9F7F30116A2E4
:10110000102F043008F013E0F301128F17A310A67C
:10111000E3012296CE01DDDAC3010E96DADAF3019D
:101120007386628684E090E0A0E0B0E0811B9109C4
:10113000A109B10986879787A08BB18B778A668AC8
:10114000A201B401C5014DDBF30191838083E11459
:10115000F10419F0F701718260820FB6F8940F92D2
:101160008091D4198F5F8093D4198091281A90911F
:10117000291A892B51F57092291A6092281A8091A8
:10118000D419813089F58CEF99E192DA87E09AE100
:101190008FDA82E19AE18CDA8DE19AE189DA81EFE6
:1011A00099E186DA86EE99E183DA87ED99E180DAD2
:1011B00081EF99E19093E5198093E41986EE99E126
:1011C0009093E3198093E2190FC08091CE19811199
:1011D0000BC0E091281AF091291A828D081720F08F
:1011E0007092291A6092281A8091CA198F5F809391
:1011F000CA19F301828D9091CF19981710F480933A
:10120000CF19FBE08F9FC0011124BE018450964E80
:1012100064DA0F900FBE8091CE19882351F0E091CF
:10122000281AF091291A828D801728F485DB81E035
:101230000AC081E008C081E006C0FC01D48EC38EE4
:10124000C6013ACF8FEFDF91CF911F910F91FF90A1
:10125000EF90DF90CF90BF90AF909F908F907F9056
:101260006F905F904F9008950FB6F8940F9200978B
:1012700021F48091281A9091291A0F900FBEFC0139
:10128000828D0895AF92BF92CF92DF92EF92FF923C
:101290000F93A12CB12CC12CD12C0F2EF5EDEF2EDC
:1012A000F9E1FF2EF02D00E020E030E044E650E0D0
:1012B00068E072E080EE97E0D6DE813061F4F89469
:1012C0008093CE191092D0191092D1191092D21980
:1012D0001092D319F6DA0F91FF90EF90DF90CF9034
:1012E000BF90AF9008958091C9198F5F8093C919FD
:1012F00008950FB6F8940F926091D0197091D1199A
:101300008091D2199091D3190F900FBE0895009734
:1013100021F48091281A9091291A4D960895809170
:10132000D5199091D61908959F92AF92BF92CF92FE
:10133000DF92EF92FF920F931F93CF93DF938091F1
:10134000C9198111D8C08091D0199091D119A0915B
:10135000D219B091D3190196A11DB11D8093D01956
:101360009093D119A093D219B093D319C090D019EA
:10137000D090D119E090D219F090D319C114D104B2
:10138000E104F104F1F58091E4199091E5192091BF
:10139000E2193091E3193093E5192093E419909301
:1013A000E3198093E2198091CB198F5F8093CB1959
:1013B000E091E419F091E519808181110CC08FEF63
:1013C0009FEFDC018093020290930302A09304023A
:1013D000B093050216C0E091E419F091E519078079
:1013E000F085E02D0084F185E02D82819381A48138
:1013F000B5818093020290930302A0930402B093FC
:1014000005028091020290910302A0910402B09122
:101410000502C816D906EA06FB0610F4B12C5AC01C
:10142000B12C0F2EFBE0AF2EF02D99249394E09178
:10143000E419F091E519908191110CC08FEF9FEFA5
:10144000DC018093020290930302A0930402B09304
:10145000050240C0E091E419F091E5190780F0859C
:10146000E02DC085D1858A819B81AC81BD81C81664
:10147000D906EA06FB0648F4809302029093030221
:10148000A0930402B093050225C08E010E5F1F4F8A
:10149000C80181D9888D998D892B19F0CE010E96BE
:1014A0007AD92A8D8091CF19821710F42093CF1901
:1014B000A29EC0011124B8018450964E0ED9E0912D
:1014C000281AF091291A9A8D828D981708F4AFCFB7
:1014D000B92CADCFE091281AF091291AE28D8BE05A
:1014E000E89FF0011124E450F64E8081823048F0EC
:1014F000BB24B39406C08091CD198F5F8093CD1922
:10150000B12C8091CC19882311F0BB24B3948B2D7E
:10151000DF91CF911F910F91FF90EF90DF90CF90CF
:10152000BF90AF909F900895CF92DF92EF92FF927D
:101530000F931F93CF93DF930FB6F8940F92809180
:10154000C91981508093C9198091C91981115AC054
:101550008091D419811129C058C0D7011796ED91F7
:10156000FC911897C085D185CE010E9614D98E01B5
:101570000E5F1F4FC8010FD99A8D8091CF1989171F
:1015800010F49093CF19D99EC0011124B801845052
:10159000964EA3D8E091281AF091291A9A8D828D3F
:1015A000981778F0C092CC190CC00F2EF7EDEF2EE3
:1015B000F9E1FF2EF02D0F2EFBE0DF2EF02DCC24D5
:1015C000C394F70180818111C8CF8091CD19882300
:1015D00091F08091CD19882371F0C1E0A5DE8111D1
:1015E000C093CC198091CD1981508093CD198091F1
:1015F000CD198111F3CF8091CC19813029F49CD978
:1016000081E003C080E001C080E00F900FBEDF9159
:10161000CF911F910F91FF90EF90DF90CF900895A1
:10162000CF92DF92EF92FF920F931F93CF93DF93AE
:10163000EC016A017B0157DE8091D0199091D1199C
:10164000A091D219B091D319088119812A813B81C7
:10165000C00ED11EE21EF31E80179107A207B3072A
:1016600078F4C016D106E206F30640F5C882D982A6
:10167000EA82FB828C159D05AE05BF05A8F40BC060
:10168000C016D106E206F306A0F08C159D05AE0546
:10169000BF0578F013C08091281A9091291A0296FC
:1016A0007AD8C701B60193DC3FDF81110CC044D961
:1016B0000AC0C882D982EA82FB82EDCFC882D98271
:1016C000EA82FB82F1CFDF91CF911F910F91FF90C2
:1016D000EF90DF90CF900895CF92DF92EF92FF923C
:1016E0006B017C01672B682B692BC9F0FCDD8091B5
:1016F000D0199091D119A091D219B091D319C80ED7
:10170000D91EEA1EFB1E8091281A9091291A029672
:1017100042D8C701B6015BDC07DF811101C00CD9DB
:10172000FF90EF90DF90CF9008958091C9198823A2
:1017300021F081E08093CC1908951092CC19E091AA
:10174000CF194BE0E49FF0011124E450F64E808164
:10175000811110C09BE08091CF1981508093CF19E7
:10176000E091CF199E9FF0011124E450F64E808144
:10177000882389F38091CF19282F30E04BE0849F94
:10178000C0011124DC01A450B64E1196ED91FC91DC
:1017900012970480F581E02D1296FC93EE93119739
:1017A0008150964EE817F90761F4848195814BE0EA
:1017B000429FF001439FF00D1124E450F64E9283B6
:1017C00081838BE0829FF001839FF00D1124E45010
:1017D000F64E0180F281E02D808591859093291A43
:1017E0008093281A0895CF92DF92EF92FF926A01B8
:1017F0007B012091281A3091291AB901625F7F4F2D
:101800000E948E038091281A9091291A02960E94B4
:10181000CB038091D0199091D119A091D219B09198
:10182000D319BC01CD016C0D7D1D8E1D9F1DCFDB1D
:10183000FF90EF90DF90CF9008950F931F93CF9379
:10184000DF93DC011796ED91FC911897C085D18547
:101850008E01025F1F4FC8010E94CB038091C919FE
:10186000811116C00C501109C8010E94CB039A8D3A
:101870008091CF19891710F49093CF19BBE09B9FEB
:10188000C0011124B8018450964E0E946D0305C01A
:10189000B80187ED99E10E946D03E091281AF0915B
:1018A000291A9A8D828D891720F481E08093CC19B2
:1018B00001C080E0DF91CF911F910F910895209199
:1018C000CB19FC0120834091D0195091D11960911E
:1018D000D2197091D319418352836383748308951D
:1018E0008F929F92AF92BF92CF92DF92EF92FF9230
:1018F0000F931F93FC01DB010FB6F8940F924091F8
:10190000D0195091D1196091D2197091D319809149
:10191000CB199081981749F001811281238134817C
:10192000401751076207730728F5C180D280E38012
:10193000F4800D911D912D913C9113974A015B010B
:101940008C189D08AE08BF0880169106A206B30643
:1019500098F4CF01C41AD50AE60AF70A0C0D1D1D2A
:101960002E1D3F1D0D931D932D933C931397A7DFC1
:1019700080E003C081E001C081E00F900FBE1F91A5
:101980000F91FF90EF90DF90CF90BF90AF909F901E
:101990008F90089581E08093CC190895009721F4E9
:1019A0008091281A9091291ADC015B96ED91FC91A7
:1019B0005C978081853A59F4319680E090E0DC01B3
:1019C0000196A11DB11D2191253AD1F3089580E022
:1019D00090E0DC0108950F931F93CF93DF93FC01F8
:1019E000892B09F451C0828DA091281AB091291A2F
:1019F0005A969C91891708F047C04685578560899B
:101A00007189772394F0A091281AB091291A5A96D7
:101A10009C9144E050E060E070E0491B510961098D
:101A2000710946875787608B718B2BE0829FC001BD
:101A300011248450964E2485358528173907E9F4FA
:101A40008F01EF012296CE010E94CB03E091281A6C
:101A5000F091291A928DF801928F8091CF198917F0
:101A600010F49093CF19FBE09F9FC0011124BE0199
:101A70008450964E0E946D0307C0A091281AB09121
:101A8000291A5A968C91828FDF91CF911F910F91D5
:101A900008950F931F93CF93DF93FC01892B79F166
:101AA00080A5815080A7228D97A1291751F181111E
:101AB0002AC0EF018F010E5F1F4FC8010E94CB03A8
:101AC0009FA19A8F44E050E060E070E0491B51090B
:101AD000610971094E875F87688B798B8091CF1977
:101AE000891710F49093CF192BE0929FC001112415
:101AF000B8018450964E0E946D0381E005C080E0DD
:101B000003C080E001C080E0DF91CF911F910F9171
:101B100008958091281A9091291A892B39F0E09123
:101B2000281AF091291A80A58F5F80A78091281A22
:101B30009091291A0895EF92FF920F931F93CF93DC
:101B4000DF938C017B0181E192E0F8019183808336
:101B500061157105A9F0FB0101900020E9F73197AB
:101B6000E61BED3008F0ECE0CE2FD0E0CE01019680
:101B700080D4F80195838483AE01B7010E94B71920
:101B800080912A1A90912B1AF801978386831093DB
:101B90002B1A00932A1ADF91CF911F910F91FF907A
:101BA000EF9008950F931F93CF93DF93EC018091F3
:101BB0002A1A90912B1A892B09F16BE0CE0132D5AC
:101BC0008C0165E271E0F7D466E0C8012BD56BE0CB
:101BD000CE0128D58C0162E071E0EDD466E0C80149
:101BE00021D580912A1A90912B1ADC01ED91FC915C
:101BF0000190F081E02DBE0109950AC06BE0CE0195
:101C000011D5EC0164EE70E0D6D466E0CE010AD5C1
:101C1000DF91CF911F910F9108954F925F926F9234
:101C20007F928F929F92AF92BF92CF92DF92EF926C
:101C3000FF920F931F93CF93DF93EC013B01290198
:101C40004801FC0187E192E081939193A12CB12C92
:101C5000C12CD12C7F01042F9E01A20187EA9EE0B6
:101C600002DA9F828E825986488620912C1A309102
:101C70002D1A3D832C83D0932D1AC0932C1A1C86C9
:101C80001D8640903C1A50903D1A9FEF491A590A00
:101C900050923D1A40923C1A5B864A861E861F86E9
:101CA000188A198A8114910409F432C08130D9F458
:101CB0006BE0C401B7D4EC016EE571E07CD4B301F4
:101CC000CE0179D46BE0CE01ADD4EC0165E671E0D4
:101CD00072D463E0CE01A6D4B201E8D462E0A2D40B
:101CE00066E0A0D415C06BE0C4019CD4EC0168E4AC
:101CF00071E061D4B301CE015ED4E881F981028044
:101D0000F381E02D62E2CE01099566E0CE018AD42E
:101D1000DF91CF911F910F91FF90EF90DF90CF90C7
:101D2000BF90AF909F908F907F906F905F904F90FB
:101D30000895EC01E881F9810190F081E02D099589
:101D40001B821A826FEF7FEFCB01C6DCFBCFF1DF86
:101D5000FC01648765870895CF92DF92EF92FF922E
:101D60000F931F93CF93DF93EC017B018A819B81BB
:101D7000CEDA6C016BE0C70155D48C016CE771E0E1
:101D80001AD4B601C80117D466E0C8014BD48A85BD
:101D90009B8528853985A701BC01821B930BE5D261
:101DA0008C819D81009711F0B701D6DFDF91CF9133
:101DB0001F910F91FF90EF90DF90CF9008950F93B8
:101DC0001F93CF93DF93EC0180912C1A90912D1AE1
:101DD000009711F0BE01C0DF6BE0CE0123D48C016F
:101DE00063E871E0E8D366E0C8011CD480913C1A36
:101DF00090913D1ABC016F5F7F4FAE0183569109F0
:101E0000B4D2DF91CF911F910F9108958F929F923D
:101E1000AF92BF92CF92DF92EF92FF920F931F93F8
:101E2000CF93DF93EC018B018A819B8170DABC0137
:101E3000C801C1D3D801ED91FC910280F381E02D5E
:101E400069E0C80109958A819B8161DAFC010190F2
:101E50000020E9F73197E81BF90B389748F4D801CF
:101E6000ED91FC910280F381E02D69E0C8010995B4
:101E7000CE84DF84E888F988A884B9848A819B812C
:101E80008DDD982E8C848A819B81EED9682FC801C4
:101E900085D46BE0C7D3EC0167EF71E08CD3682D7C
:101EA000CE017CD46BE0BED3EC0169EF71E083D34B
:101EB000692DCE0173D46BE0B5D3EC016BEF71E00B
:101EC0007AD3B501CE01F2D36BE0ACD3EC016DEF68
:101ED00071E071D36BE0CE01A5D3EC016FEF71E03F
:101EE0006AD3B701A601CE0117D4DF91CF911F911C
:101EF0000F91FF90EF90DF90CF90BF90AF909F90A9
:101F00008F900895CF93DF93EC01CB01DB01ED912E
:101F1000FC910280F381E02DBE010995CE01DF9195
:101F2000CF9108950F931F93CF93DF93EC018B0113
:101F3000BC01C801E7DF66E075D38C819D81009705
:101F400011F0B801EFDFDF91CF911F910F9108954C
:101F50000F931F93CF93DF93EC016BE063D38C015E
:101F600065EE71E028D36BE0C8015CD38C0160EFB3
:101F700071E021D366E0C80155D36BE0CE0152D3A6
:101F80008C0162EC71E017D36BE0C8014BD38C017C
:101F900063ED71E010D36BE0C80144D38C016FEDA9
:101FA00071E009D366E0C8013DD36BE0CE013AD3BE
:101FB0008C016FE971E0FFD26BE0C80133D38C0173
:101FC00060EB71E0F8D26BE0C8012CD38C016CEBB4
:101FD00071E0F1D266E0C80125D380912C1A90916E
:101FE0002D1A009711F0BE019DDF99D9D7DC182F6B
:101FF0006BE0CE0117D3EC016EE871E0DCD2612F0B
:10200000CE01CCD36BE00ED3EC0169E971E0D3D201
:1020100064E670E0CE014AD36BE004D3EC016BE9D7
:1020200071E0C9D266E0CE01FDD2DF91CF911F9160
:102030000F910895CF92DF92EF92FF920F931F932B
:10204000CF93DF937C018B01DC011A966D917C911B
:102050001B97C801B0D2F701A285B385FD0101909D
:102060000020E9F73197CE2FCA1BC03160F4D801A8
:10207000ED91FC910280F381E02D60E2C8010995A9
:10208000CF5FC031A1F76BE172E0C80194D2F701D4
:10209000C688D788868597850E94D607682FC8018D
:1020A0007DD3EC01E881F9810280F381E02D6FE2BC
:1020B0000995B601CE01FAD2DC01ED91FC910280C6
:1020C000F381E02D69E0099566E0C801ABD2F70124
:1020D00084859585009741F0DC01ED91FC9101909C
:1020E000F081E02DB8010995DF91CF911F910F91FB
:1020F000FF90EF90DF90CF90089506979BCF0F93BE
:10210000CF93DF931F92CDB7DEB700E02FEF3FEF05
:10211000A901BE016F5F7F4FFC01868597850E94F4
:102120001207813011F4898101C08FEF0F90DF9188
:10213000CF910F910895FC01868597850E94CE0767
:1021400091E0811101C090E0892F08950F93CF9302
:10215000DF931F92CDB7DEB76983FC0120893189F7
:102160004289538900E0BE016F5F7F4F8685978566
:102170000E9476060F90DF91CF910F9108954F92B4
:102180005F926F927F928F929F92AF92BF92CF9207
:10219000DF92EF92FF920F931F93CF93DF93EC01A7
:1021A000D62EC72E4A015901FBD1B401CE010696A5
:1021B000C2DC86E292E09983888388E392E09F8381
:1021C0008E83BD8AAC8A40E061E08D2D0E944C0672
:1021D0009F878E87E88AF98A0A8B1B8BDE8ACF8AD3
:1021E000DF91CF911F910F91FF90EF90DF90CF90F3
:1021F000BF90AF909F908F907F906F905F904F9027
:102200000895CF92DF92EF92FF92CF93DF93EC018C
:10221000688179818A819B810F2EF8EECF2EF3E0C1
:10222000DF2EE12CF12CF02DA70196010E9433192D
:102230009B01AC0160E472E48FE090E0F2D7A7016B
:1022400096010E94331969017A01AC81BD8120E4B5
:1022500032E44FE050E00E947A1920E834E84EE181
:1022600050E00E945519C701B601620F731F841F09
:10227000951FDF91CF91FF90EF90DF90CF90089561
:10228000CF92DF92EF92FF920F931F93CF93DF9342
:10229000CDB7DEB72F970FB6F894DEBF0FBECDBF18
:1022A0006C018B01DB016D917D918D919C9128EEEC
:1022B00033E040E050E0D7D7BA01A901C6012CD2E3
:1022C000D601ED91FC910280F381E02D6EE2C60112
:1022D0000995C80196DF8E01015F1F4FFE013996F7
:1022E0007F012AE030E040E050E0DFD7E62F29838D
:1022F0003A834B835C8369817A818B819C8120E363
:102300002E0FD8012E938D01AE15BF0551F71F86F4
:10231000BE01675F7F4FC6014ED1C6012F960FB633
:10232000F894DEBF0FBECDBFDF91CF911F910F910B
:10233000FF90EF90DF90CF900895CF93DF93EC0163
:102340000FB6F8940F9280912401909125019D83FE
:102350008C830E947909688379838A839B830F9099
:102360000FBECE01DF91CF9108958F929F92AF92D1
:10237000BF92CF92DF92EF92FF920F931F93CF9372
:10238000DF936C015B01EA0163E0CA014BD1CA141F
:10239000DB0408F05BC0760184E1E80EF11C8C2CB4
:1023A0009D2CB601CE0182D16BE03CD161E072E0A0
:1023B00002D18601F80161918F01CE01EFD1E88150
:1023C000F9810280F381E02D60E2CE010995E016EB
:1023D000F10681F7E881F9810280F381E02D60E266
:1023E000CE010995082D192DF80161918F01653AEB
:1023F00049F4E881F9810280F381E02D60E2CE01A9
:10240000099514C080EE860F8F3540F4E881F9817C
:102410000280F381E02DCE01099508C0E881F981A1
:102420000280F381E02D6EE2CE010995E016F106FF
:10243000D9F6F4E1CF0ED11C66E0CE01F3D084E1F1
:10244000E80EF11CCA14DB0408F4A9CF62E0CE0147
:10245000E9D0DF91CF911F910F91FF90EF90DF9026
:10246000CF90BF90AF909F908F9008950C948A0268
:1024700008950C948A02089508950F931F93CF93A3
:10248000DF93EC0141113AC086EC90E09983888398
:1024900000EC10E01B830A83E1ECF0E0FD83EC83A9
:1024A00088E1808386E08093C2001092C500CB0152
:1024B000A0E0B0E0880F991FAA1FBB1F880F991FCB
:1024C000AA1FBB1F9C01AD01220F331F441F551FC4
:1024D000220F331F441F551F60E074E284EF90E029
:1024E000C2D62093C400F80180818160808380E29D
:1024F0008E8380E88F8380E4888739C08EEC90E0FB
:102500009983888308EC10E01B830A83E9ECF0E0F0
:10251000FD83EC8388E1808386E08093CA0010927B
:10252000CD00CB01A0E0B0E0880F991FAA1FBB1F10
:10253000880F991FAA1FBB1F9C01AD01220F331FDB
:10254000441F551F220F331F441F551F60E074E2C4
:1025500084EF90E088D62093CC00F80180818160E0
:10256000808380E28E8380E88F8380E48887E8819F
:10257000F98180818081DF91CF911F910F91089522
:1025800081E0089580E0089580E008950895DC01D9
:10259000ED91FC910280F381E02D6CE009950895A6
:1025A000FC018EE392E0918380838AE0828383E062
:1025B0008583148208950F931F93CF93DF938C012B
:1025C000FB01DC0114968C91811104C060816111C2
:1025D00017C023C0D80114961C92EB012196649178
:1025E0006623D9F0D801ED91FC910280F381E02DB2
:1025F000C8010995FE01649121966111F3CF0DC0C8
:10260000EF012196D801ED91FC910280F381E02D3C
:10261000C801099569916111F5CFDF91CF911F91A3
:102620000F910895CF93DF93EC01462F50E04C308B
:102630005105C0F5FA01EA59FF4F53C682E08A837B
:1026400031C088E08A832EC08AE08A832BC080E173
:102650008A8328C0E881F9810280F381E02D6DE052
:102660000995E881F9810280F381E02D6AE0CE01CD
:10267000099518C0E881F9810284F385E02D099558
:1026800011C0E881F9810084F185E02D09950AC027
:1026900081E08C8307C0809107028D8303C0809105
:1026A00006028A83CE01DF91CF910895FF920F93A6
:1026B0001F93CF93DF93CDB7DEB761970FB6F89432
:1026C000DEBF0FBECDBF8C01F62E972FF8014281E1
:1026D000403121F0483011F0423031F4692FC80107
:1026E0005DD06F2D5BD00BC050E0BE016F5F7F4FA0
:1026F0008F2D77D6BE016F5F7F4FC8015CDFC801A9
:1027000061960FB6F894DEBF0FBECDBFDF91CF91BB
:102710001F910F91FF900895DF92EF92FF920F9318
:102720001F93CF93DF93CDB7DEB7A1970FB6F89481
:10273000DEBF0FBECDBF8C01D42EE52EF62E972F17
:10274000F8012281203121F0283011F0223051F49B
:10275000692FC80123D06F2D21D06E2D1FD06D2D74
:102760001DD00DC030E0AE014F5F5F4F6D2D7E2D4F
:102770008F2D0CD6BE016F5F7F4FC8011CDFC801D3
:10278000A1960FB6F894DEBF0FBECDBFDF91CF91FB
:102790001F910F91FF90EF90DF900895CF92DF92FD
:1027A000EF92FF920F931F93CF93DF93CDB7DEB7D6
:1027B00029970FB6F894DEBF0FBECDBF8C01E62E71
:1027C000DC0113968C911397882341F0ED91FC91D5
:1027D0000280F381E02DC801099554C0F8014281BF
:1027E000423019F56894CC24C3F8D12C6894FF24A6
:1027F000F7F88F2D8E2151F0D801ED91FC910280D8
:10280000F381E02D61E3C801099509C0D801ED917C
:10281000FC910280F381E02D60E3C8010995F694F4
:10282000B1E0CB1AD10829F72DC04031F9F46295F7
:102830006F700190F081E02D0280F381E02D6A300D
:1028400010F0695C01C0605DC80109956E2D6F7064
:10285000D801ED91FC910280F381E02D6A3010F0F7
:10286000695C01C0605DC80109950CC050E0BE0103
:102870006F5F7F4F8E2D90E0B4D5BE016F5F7F4FAD
:10288000C80199DEC80129960FB6F894DEBF0FBEC5
:10289000CDBFDF91CF911F910F91FF90EF90DF900F
:1028A000CF900895DC011896ED91FC9119978081E5
:1028B0001C964C911C97842329F009C021503109A2
:1028C00019F4089521E23EE490819423B9F39081B4
:1028D0001E968C911E97892B80831696ED91FC9104
:1028E000179760830895FC018785811121C020918D
:1028F000361A3091371A8091341A9091351A281768
:102900003907E9F3E091381AF091391AE20FF31F11
:1029100080812F5F3F4F2032310528F43093371AE2
:102920002093361A08951092371A1092361A089585
:102930002091301A3091311A80912E1A90912F1ACD
:1029400028173907E9F3E091321AF091331AE20FB0
:10295000F31F80812F5F3F4F2032310528F43093E1
:10296000311A2093301A08951092311A1092301AA9
:102970000895FC01878581110EC081E04091361ACF
:102980005091371A2091341A3091351A4217530753
:1029900079F480E0089581E04091301A5091311A25
:1029A00020912E1A30912F1A4217530709F480E014
:1029B0000895DC01ED91FC910280F381E02D6CE043
:1029C00009950895EF92FF921F93CF93DF93EC0147
:1029D0007B01142FE5DD412FB701CE0106964DDDB9
:1029E0008EE492E0998388831F87111115C0E1EC72
:1029F000F0E080818068808380E290E03ADD90930F
:102A0000391A8093381A1092371A1092361A109287
:102A1000351A1092341A14C0E9ECF0E08081806815
:102A2000808380E290E025DD9093331A8093321A00
:102A30001092311A1092301A10922F1A10922E1AE8
:102A4000DF91CF911F91FF90EF9008951F920F9209
:102A50000FB60F9211240BB60F922F933F938F93C3
:102A60009F93EF93FF932091C600E091381AF09165
:102A7000391A8091341A9091351AE80FF91F208382
:102A80008091341A9091351A01968032910560F444
:102A90009093351A8093341A2091361A3091371A50
:102AA00082179307F1F40CC01092351A1092341A61
:102AB0008091361A9091371A1816190691F40EC0A3
:102AC00001968032910528F49093371A8093361A34
:102AD00008C01092371A1092361A03C081E090E0B5
:102AE000F3CFFF91EF919F918F913F912F910F9095
:102AF0000BBE0F900FBE0F901F9018951F920F9254
:102B00000FB60F9211240BB60F922F933F938F9312
:102B10009F93EF93FF932091CE00E091321AF091B2
:102B2000331A80912E1A90912F1AE80FF91F2083E3
:102B300080912E1A90912F1A01968032910560F49F
:102B400090932F1A80932E1A2091301A3091311AB7
:102B500082179307F1F40CC010922F1A10922E1ABC
:102B60008091301A9091311A1816190691F40EC0FE
:102B700001968032910528F49093311A8093301A8F
:102B800008C01092311A1092301A03C081E090E010
:102B9000F3CFFF91EF919F918F913F912F910F90E4
:102BA0000BBE0F900FBE0F901F901895CF92DF9223
:102BB000EF92FF920F931F93CF93DF9314BE0FB644
:102BC000F894A895809160008861809360001092CD
:102BD00060000FBE80E190E049DCEC0141E060E87C
:102BE00075E2F0DE67E0CE011DDD6BE01BDD6C0100
:102BF00064E072E0E0DC66E0C60114DD88E190E0AC
:102C000035DC6C011AE0E12EF12C00E010E09E01B1
:102C10004AE552E060E270E0B2DAD0923B1AC0922C
:102C20003A1A82E190E022DC8E0124E031E041E0BA
:102C300060E672E06AD082E190E018DC28E131E0E1
:102C400042E068E672E051D00E94420980E090E0E4
:102C5000DF91CF911F910F91FF90EF90DF90CF9078
:102C60000895CF93DF9300D000D0CDB7DEB78C01AD
:102C70000E94790969837A838B839C8382E090E048
:102C8000F5DB7C01F801668177810E94170280E103
:102C90008DB981E3809390008BE0809391000F2E9B
:102CA000FAE9CF2ED12CF02D46E061E0C7010E9459
:102CB00051029695879596958795F6019183808325
:102CC000F80186859785A089B1890196A11DB11D5E
:102CD00086879787A08BB18B44E650E060E070E078
:102CE000CE0101960E94100BDFCF0F931F93CF935D
:102CF000DF93EC010E940D0E83E792E099838883B5
:102D0000DF91CF911F910F9108950F931F93CF9350
:102D1000DF93EC010E940D0E8FE792E09983888388
:102D2000DF91CF911F910F9108950F931F93CF9330
:102D3000DF93EC016BE08E819F8174DC8C016FE18D
:102D400073E039DC6BE0C8016DDC8C0165E473E095
:102D500032DC66E0C80166DC6BE08E819F8162DC5C
:102D60008C016EEF72E027DC66E0C8015BDC6BE093
:102D70008E819F8157DC8C0167ED72E01CDC66E080
:102D8000C80150DC6BE08E819F814CDC8C0169EBCB
:102D900072E011DC66E0C80145DC6BE08E819F814A
:102DA00041DC8C016AE972E006DC66E0C8013ADCCD
:102DB0006BE08E819F8136DC8C0163E872E0FBDB87
:102DC00066E0C8012FDC6BE08E819F812BDCEC017B
:102DD00064E772E0F0DB66E0CE0124DCDF91CF91A6
:102DE0001F910F9108958F929F92AF92BF92CF92B1
:102DF000DF92EF92FF920F931F93CF93DF9300D058
:102E000000D000D0CDB7DEB78C0119821A821B82A8
:102E10001C821E821D82C0902801D09029010E9430
:102E200053035C01CE01019688DA4C0166E0F8019B
:102E300086819781F7DB6BE0F5DB7C0161E272E074
:102E4000BADB6BE0C701EEDB7C0167E472E0B3DB69
:102E500066E0C701E7DB6BE0E5DB7C0163E572E080
:102E6000AADBB401C7010CDA6BE0DCDB7C0161E6B4
:102E700072E0A1DBB501C70119DC7C0167E772E0F4
:102E80009ADB48E357E160E070E0C70145DC6BE0A6
:102E9000C9DB7C016AE672E08EDBB601C70106DCA5
:102EA00066E0C0DB66E0BEDBF8018681978150D822
:102EB00066E0F80186819781B5DBF801868197810C
:102EC0000E94D20D26960FB6F894DEBF0FBECDBF7E
:102ED000DF91CF911F910F91FF90EF90DF90CF90F6
:102EE000BF90AF909F908F900895CF93DF9300D0C5
:102EF00000D000D0CDB7DEB78C0119821A821B82B8
:102F00001C821E821D826BE0DC0116968D919C91C5
:102F1000179788DB7C0163ED73E04DDB66E0C7014A
:102F200081DBC12CD12C7601512C612C712C812C90
:102F3000F8018485882321F0813009F49AC048C1C2
:102F400086819781DC01ED91FC910480F581E02D73
:102F50000995882309F452C1F80186819781DC0123
:102F6000ED91FC910680F781E02D0995982EB8E649
:102F70008B1761F1B81750F0EFE38E1739F1F4E6D3
:102F80008F17F1F083E0981252C03AC0A3E78A1776
:102F9000A1F0B4E78B1721F0EEE68E1348C019C0FC
:102FA000CE010196CAD9BC01D80116968D919C918B
:102FB000179766D966E036DB21C1C80114DF1EC150
:102FC000F801868197810E94DF0E18C1C801ADDE2D
:102FD00015C16BE0D80116968D919C91179722DB55
:102FE0007C0162EA73E0E7DA66E0C7011BDB61E0BF
:102FF000C8010E94A80EC52CD62CE72CF82CFEC0C8
:103000006BE0F801868197810DDB8C0164E973E048
:10301000D2DA66E0C80106DB9BE088E10FB6F894DF
:10302000A895809360000FBE90936000FFCFD801F9
:103030001696AD90BC901797D501ED91FC9102804A
:10304000F381E02D62E2C5010995D501ED91FC9176
:103050000280F381E02D692DC50109956BE0C50162
:10306000E1DA5C016CE873E0A6DA66E0C501DADA61
:10307000C5C0F80186819781DC01ED91FC91048047
:10308000F581E02D0995882309F479C0F80186813E
:103090009781DC01ED91FC910680F781E02D099587
:1030A000982E80ED890D8A3048F5F8018681978148
:1030B000DC01ED91FC910280F381E02D692D0995F1
:1030C000CC0CDD1CEE1CFF1CD701C601880F991F1C
:1030D000AA1FBB1F880F991FAA1FBB1FC80ED91E8E
:1030E000EA1EFB1E892D90E0C097092E000CAA0B4A
:1030F000BB0BC80ED91EEA1EFB1E80C0BAE09B1295
:1031000007C069E772E0F8018681978154DA76C0DA
:10311000FDE09F1619F08BE1981218C066E0D80107
:1031200016968D919C9117977DDA6BE07BDA5C01A6
:103130006BE773E040DAB701A601C501EDDA66E09E
:1031400071DA60E0C8010E94A80E58C06BE0F80177
:103150008681978167DA5C0168E673E02CDAD50135
:10316000ED91FC910280F381E02D692DC501099557
:103170006BE0C50157DA68E773E01DDA3FC0809164
:103180003A1A90913B1ADC01ED91FC910480F58193
:10319000E02D0995882391F1D8011696ED91FC91C7
:1031A00017970190F081E02DA280B38080913A1AA8
:1031B00090913B1ADC01ED91FC910680F781E02DA6
:1031C0000995682FF80186819781F501099516C048
:1031D0006BE08681978126DA8C016BE473E0EBD992
:1031E00066E0C8011FDA9BE088E10FB6F894A89565
:1031F000809360000FBE90936000FFCFF80186853A
:103200009785A089B1890196A11DB11D86879787F1
:10321000A08BB18B61E070E080E090E00E946C0BCD
:1032200087CEDB018F939F9365D0BF91AF91A29F13
:10323000800D911DA39F900DB29F900D11240895B4
:1032400097FB072E16F4009406D077FD08D05CD0CB
:1032500007FC05D03EF4909581959F4F0895709599
:1032600061957F4F0895A1E21A2EAA1BBB1BFD0199
:103270000DC0AA1FBB1FEE1FFF1FA217B307E40755
:10328000F50720F0A21BB30BE40BF50B661F771FAD
:10329000881F991F1A9469F760957095809590958D
:1032A0009B01AC01BD01CF010895052E97FB16F4DB
:1032B00000940FD057FD05D0D6DF07FC02D046F4AE
:1032C00008C050954095309521953F4F4F4F5F4F27
:1032D000089590958095709561957F4F8F4F9F4F82
:1032E0000895EE0FFF1F0024001C0BBE0790F691FF
:1032F000E02D09941DD0A59F900DB49F900DA49F23
:10330000800D911D11240895AA1BBB1B51E107C01C
:10331000AA1FBB1FA617B70710F0A61BB70B881F65
:10332000991F5A95A9F780959095BC01CD010895F4
:10333000A29FB001B39FC001A39F700D811D1124F6
:10334000911DB29F700D811D1124911D0895FB01E7
:10335000DC0102C001900D9241505040D8F7089511
:10336000DC0101C06D9341505040E0F70895FB012E
:10337000DC014150504048F001900D920020C9F707
:1033800001C01D9241505040E0F7089525323105AB
:1033900018F4223008F004C0FA011082CA0108951E
:1033A000BB27FA01A62F6217710581059105330B22
:1033B00030FB66F0AA27660F771F881F991FAA1F88
:1033C000A21710F0A21B63953850A9F7A05DAA338D
:1033D00008F0A95DA19336F7B111B1931082CA012B
:1033E00023C04532510518F4423008F004C0FB01F7
:1033F0001082CB010895BB27FB015527AA27880F10
:10340000991FAA1FA41710F0A41B83955051B9F758
:10341000A05DAA3308F0A95DA193009779F7B111D7
:10342000B1931192CB0100C0DC01FC01672F7191B7
:103430007723E1F7329704C07C916D93708362919A
:0C344000AE17BF07C8F30895F894FFCF43
:10344C003717FFFFFFFF0A0349444C4500000000FB
:10345C00003C12000000003C12060F7478745F717F
:10346C00090000000000C012A6109B107F10C612AD
:10347C00C7121A10FAFF00007D1000000000C012E5
:10348C003C12C412C212C612C71200000000C012B5
:10349C005214B9147314C612D9145072696E740094
:1034AC0055736572496E74004272696768740000E6
:1034BC000000003116060F2F000D000000000075F3
:0434CC0017060F00D0
:00000001FF
